:020000040000FA
:06000000020C7702029ED3
:03002B00020AB511
:030033000202C006
:030053000201C4E3
:03007B0002080573
:1000830002022B0101FF0503010F1D141D141D1492
:100093001D14CD12C7121D14A628000000000E293E
:1000A30000000000FF000000FF00010000FD15003C
:1000B30000000000000000000000000000DF150049
:1000C30000000000000000FFFF010100090600001E
:1000D30000E8038106E803E803E803B8010202002D
:1000E30008000005020704051E02051E0A03B80BDB
:1000F300020102E8030A050001FFFF02140020FDCC
:100103000002020612FFFF00035F005F0030005889
:1001130000000000000000000000000000000000DC
:1001230000000000000000000000000000000000CC
:100133000025067A067A067A067A068206FF0D5E9F
:10014300C01008020101830105830DAA0E000000FF
:10015300FF37243D2443244924000000004F247327
:100163002455245B24612467246D2401D324D924DA
:100173000000DF2400000000000000000000000079
:1001830000000000FD24000000000000000000004B
:100193000000EB24F124F7240000000010202020AD
:1001A30020202020202020202020202020010B049C
:1001B3000105010205CA8108C3800B5EC010080255
:1001C30000C0E074F11205C6A2AFE433FED2AFE57E
:1001D300A7FFE5A1F5085FF509741055096006123C
:1001E3001CF975A1EF740855096008121CFF75A16D
:1001F300F7802BEFA2E0C0D0E508A2E092F0120C4A
:1002030013158182F05017906198E0F890098AE005
:10021300C398A2D265D0335002E8F075A1FEEEA2D6
:10022300E092AF7F02020682C0E074F21205C6A21A
:10023300AFE433FED2AF9061A4E0F8759B00E59183
:1002430058540860087591F7121D53802AE5915898
:10025300541060087591EF121D59801BE8A2E0C08D
:10026300D0E591A2E092F0120C13158182F05007B1
:10027300E0C2E0F0121E9D9061A3E0F8E5E9585456
:1002830004600E121E7375E9FB906193E0A2E640D1
:10029300F2EEA2E092AF7F01020682C0E074F21296
:1002A30005C6A2AFE433FED2AF9061A5E0F8E5BF87
:1002B300585404600675BFFB121EB580D4C0E074A9
:1002C300F11205C6E59DA2E650FA906206E0FAA295
:1002D300E25035A82CE890620BF0F508852D0974DF
:1002E300047808120C96E508906207F0852C0885BF
:1002F3002D0974097808120C96E508543E9062099A
:10030300F0906201E0D2E0F07829EA46F6906202CA
:10031300E0F50875090074047808120C007829E5E3
:100323000846F608E50946F6906204E0F508750903
:100333000074097808120C00782AE50946F6EAA247
:10034300E05003752B0174065A6003752B00E58B8F
:10035300A2E55006758BDF752B00121FF9758B0014
:10036300C2E87F02020682C3E498F8E499F9120313
:10037300AB8026C3E49AFAE49BFBE920E7E9120386
:10038300ABE498F8E499F922C3E498F8E499F912F4
:1003930003ABE498F8E499F9C3E49AFAE49BFB22EB
:1003A300EB20E7CFE920E7E0B90010BB0008E88ABB
:1003B300F084F8AAF022E4FBC8FA22EB70227B1047
:1003C300C833C8C933C9335007C39AC3DBF28006A5
:1003D3009A50012ADBEAC833F4C8C933F4C9FA22B4
:1003E30075F008E4C833C8C933C933C99AC99B50E7
:1003F30004C92AC93BD5F0ECFBC833F4C8E4C9FAF5
:1004030022080808EAC0E0EBC0E086F0E7A4FA1887
:100413000986F0E7A42AFA180986F0E7A42AFA184D
:100423000986F0E7A42AFA1986F0E7A4FBE5F02A87
:10043300FA190886F0E7A42BFBE5F03AFA190886C7
:10044300F0E7A42BFBE5F03AFA18180986F0E7A4C5
:10045300C5F02BFBE43AFA1908E7C5F0C6A426F663
:10046300E5F03BFBE43AFA1886F0E7A4F6E5F0087A
:1004730026F6E43B08F6E43A08F6D0E0FBD0E0FACF
:1004830022E4CFC0E0E4CEC0E0E4CDC0E0E4CCC0E1
:10049300E075F020C3E633F608E633F608E633F6F4
:1004A30008E633F6181818EC33FCED33FDEE33FE93
:1004B300EF33FFC3EC9709ED9709EE9709EF97190F
:1004C3001919400FFFEC97FC09ED97FD09EE97FE14
:1004D300191906D5F0BEECF709EDF709EEF709EFA8
:1004E300F7191919D0E0FCD0E0FDD0E0FED0E0FF11
:1004F300222518C582C0E0E51934FFC583C0E0E5B5
:1005030018C3958224F810AF088583198582188053
:1005130008858319858218D2AFCEF0A3E520F0A316
:100523007808E608F0A3DEFAEFF0A3E58124FAF8F1
:10053300E608F0A3E608F0A3E608F0A30808E60837
:10054300F0A3E608F0A315811581D0E0FED0E0F812
:10055300158115811581E8C0E0EEC0E022120CD9A7
:10056300B900030205B0E47921780DB800028004D4
:10057300F709D8FCE490040178DA790C8002F0A33F
:10058300D8FCD9FA900FDAAA82AB83900086783F21
:1005930079028015E493A3AC82AD838A828B83F0C6
:1005A300A3AA82AB838C828D83D8E9D9E77582A411
:1005B3007583917405120A147582D77583267400A6
:1005C300120A14C0D02518C582C0E0E51934FFC54E
:1005D30083C0E0E518C3958224F310AF088583191F
:1005E3008582188008858319858218D2AFC8F0A345
:1005F300E9F0A3EAF0A3EBF0A37908E709F0A3D8A5
:10060300FAECF0A3EDF0A3EEF0A3EFF0A3D0E0F04B
:10061300A3D0E0F0A3D0E0F0A3E520F0A3E5F0F051
:10062300A32212010002020000205104A8160900AF
:1006330001020301090243000201008019090400B9
:100643000001020201000524001001042402020536
:100653002406000105240100010705820340004030
:1006630009040100020A000000070584024000009B
:1006730007050402400000400600006306000085F1
:100683001983851882E0C0E0A3E0F9A3E0FAA3E0B0
:10069300FBA37808E0F608A3DFFAE0FCA3E0FDA3E0
:1006A300E0FEA3E0FFA3E0C0E0A3E0C0E0A3E0F529
:1006B300D0A3E0F520A3E0A3F5F010AF08858319DC
:1006C3008582188008858319858218D2AFD082D09D
:1006D30083D0E0F8D0E032280075F0108E218F220D
:1006E300858226858325851882851983E0CEA3E03C
:1006F300CF852682852583EBC9EAC8EDCBECCAC337
:10070300E833C8E933C9EA33CAEB33CBC3EA9EF50E
:1007130024EB9FF523B35004AB23AA24EC33CCED95
:1007230033CDD5F0DAAE21AF2222D083D082ECC014
:10073300E0EDC0E0E493A3FCE493A3FDED4C600D76
:10074300120848EC24FFFCED34FFFD80EFE493A393
:10075300FCE493A3FDED4C600D12091FEC24FFFC98
:10076300ED34FFFD80EFD0E0FDD0E0FCE493A3C0C7
:10077300E0E493C0E022D083D082E9C0E0E493A315
:10078300C386F0C5F095F0F908E493A386F0C5F0AD
:1007930095F0700BE493A3C3994005E9048002A389
:1007A300E475F002A42582F582E5F03583F583D064
:1007B300E0F9E493A3C0E0E493C0E02285198385C4
:1007C3001882E0A3FEE0A3F5207808E0A3F608DF93
:1007D300FAE0A3FFE0A3C0E0E0A3C0E0E0A3C0E031
:1007E300E0A3C0E0E0A3C0E010AF088582188583D2
:1007F300198008858218858319D2AFD083D08202ED
:100803000A1AC0E074F21205C6A2AFE433FED2AFF7
:10081300E58AA2E2500790074CE0D2E0F0E58AA215
:10082300E3500790074CE0D2E1F0758A00C2EB7AFF
:10083300107B00900748E0F9121717EEA2E092AF81
:100843007F01020682C0E0C3E49396087401939685
:1008530018400FE4936670080874019366187000DB
:100863007019A3A3C3E49396087401939618A3A3E2
:10087300400DD0E0D0E0D0E0020769A3A3A3A3A377
:10088300A3D0E022D083D082C5F0E493A3C5F0C304
:1008930095F0F5F0E493A3C395F04005E5F00480EB
:1008A30001E475F002A42582F582E5F03583F58332
:1008B300E493A3C0E0E493C0E022740480087403CB
:1008C300800474028000CCC0E0EDC0E0E518C39C56
:1008D300CCAD1950011D10AF068C188D1980068CF4
:1008E300188D19D2AF120996D0E0FDD0E0FC227426
:1008F300028000CCC0E0EDC0E0E518C39CCCAD198C
:1009030050011D10AF068C188D1980068C188D1997
:10091300D2AF120974D0E0FDD0E0FC22C0E0C0F0F9
:1009230088F0E4936670080874019366187000A851
:10093300F0A3A3700BD0F0D0E0D0E0D0E0020769C1
:10094300A3A3D0F0D0E022D083D082CCC0E0E49344
:10095300A360061209B71470FAE493A36006120A9F
:10096300E61470FAD0E0FCE493A3C0E0E493C0E0A3
:1009730022CAC0E0E493A3C582CCC582C583CDC59A
:1009830083F0A3C582CCC582C583CDC583DAE5D008
:10099300E0CA22CAC0E0E0A3C582CCC582C583CD2C
:1009A300C583F0A3C582CCC582C583CDC583DAE6F2
:1009B300D0E0CA22C0E0E493A3D39C5010E493A3F5
:1009C300C39C400AD0E0D0E0D0E0020967A3A3A310
:1009D300D0E022C008C3E096F50808A3E0964208D9
:1009E30008A3E096420808A3E09645087001D3D017
:1009F30008227009080808226016181818C6C3339D
:100A0300C608C633C608C633C608C633C6D5E0EA29
:100A130022C09FF59FE473D09F22D083D082C09FD2
:100A2300E493C0E0740193C0E0740293F59F222520
:100A330018F58210AF08F518400215198008F5184B
:100A430040021519D2AF851983227404800A7403F6
:100A53008006740280027401C0E0F404120A32D0EA
:100A6300E0120CB422BB0102E722C082C083898258
:100A73008A83BB0003E08002E493D083D08222C048
:100A8300D0251810AF08F518500205198008F5187D
:100A930050020519D2AFD0D0226016080808C6C389
:100AA30013C618C613C618C613C618C613C6D5E090
:100AB300EA22C0E0C0D0E8C0E0E5A8D2AFC2C7A236
:100AC300E792AFD0E0F8D0D0D0E032C3E0C696F6DC
:100AD30008A3E0C696F608A3E0C696F608A3E0C608
:100AE30096F622C0E0E493A36C7009D0E0D0E0D086
:100AF300E0020967A3A3D0E022251810AF08F51878
:100B0300400215198008F51840021519D2AF22BB0F
:100B1300000EC082C0838A838982F0D083D0822270
:100B2300BB0101F722C3E09608A3E09608A3E09671
:100B330008A3E096A2D265D03322E066701008A322
:100B4300E066700A08A3E066700408A3E06622E783
:100B53006670100809E766700A0809E766700408FA
:100B630009E76622C3E096F008A3E096F008A3E045
:100B730096F008A3E096F022E026F008A3E036F012
:100B830008A3E036F008A3E036F022E026F608A337
:100B9300E036F608A3E036F608A3E036F622E627A9
:100BA300F60809E637F60809E637F60809E637F6E0
:100BB30022E657F60809E657F60809E657F6080944
:100BC300E657F622E056F608A3E056F608A3E056E9
:100BD300F608A3E056F622E056F008A3E056F00824
:100BE300A3E056F008A3E056F022E647F60809E62C
:100BF30047F60809E647F60809E647F62270042295
:100C0300600D18C6C333C608C633C6D5E0F4182230
:100C1300C0E0E8C0E0E58124FCF8E6A2E7D0E0F814
:100C2300D0E022E4C396F608E496F608E496F608C4
:100C3300E496F622C3E09608A3E09608A3E096089C
:100C4300A3E09622C6F4C608C6F4C608C6F4C608CE
:100C5300C6F4C622600D08C6A2E713C618C613C69B
:100C6300D5E0F322C3E7960809E7960809E7960853
:100C730009E7962275D0007581407518017519042E
:100C830000020560E0F608A3E0F608A3E0F608A377
:100C9300E0F622600C08C6C313C618C613C6D5E017
:100CA300F422E6F008A3E6F008A3E6F008A3E6F0D2
:100CB30022CAC0E0E6F0A308DAFAD0E0FA22E0FAAA
:100CC300A3E0FBA3E0FCA3E0FD22EAF0A3EBF0A387
:100CD300ECF0A3EDF022E5C754F84401F5C7790120
:100CE300222518F582E43519F58322C2AF75D69F04
:100CF30002000022120A1DCA5800120A1D88590058
:100D0300120A1DB75A00120A1D8E5D00120A1D70C9
:100D13006000120A1D7D6000120A1D0F6100120A95
:100D23001DD56100120A1D1D6200120A1D666200B4
:100D3300120A1DB56200120A1D1A6300120A1D80F1
:100D43006300120A1D9C6300120A1DD06300120A7D
:100D53001D056400120A1DFC6400120A1DAD650026
:100D6300120A1D296800120A1D6F6900120A1D2349
:100D73006A00120A1DAE6A00120A1DE46A00120A12
:100D83001D966B00120A1D596C00120A1D376E0066
:100D9300120A1D6B6E00120A1DE66E00120A1DC0B8
:100DA3006F00120A1D7E7000120A1DC37000120A22
:100DB3001DDB7000120A1D727100120A1DE673001A
:100DC300120A1D897500120A1DA77500120A1DC596
:100DD3007500120A1DAB7600120A1DCE7900120AA5
:100DE3001DDC7900120A1D84A502120A1DB9A50291
:100DF300120A1DDFA502120A1D19A602120A1D2BD3
:100E0300A602120A1D7EA602120A1DDEA602120AFD
:100E13001D68A702120A1D0EA802120A1D56A80277
:100E2300120A1D90A802120A1DADA802120A1DD2B1
:100E3300A802120A1D24A902120A1D3DA902120AC0
:100E43001D63A902120A1D82A902120A1DC6A90264
:100E5300120A1D0AAA02120A1D31AA02120A1D82CF
:100E6300AA02120A1D36AB02120A1DE4AB02120AD1
:100E73001DACAC02120A1D87AD02120A1D55AE024B
:100E8300120A1D64AE02120A1D6FAE02120A1DB5CC
:100E9300AF02120A1DC6AF02120A1D40B002120AA7
:100EA3001DD5B002120A1D2DB102120A1DEDB102A9
:100EB300120A1D1EB202120A1D5BB202120A1D683B
:100EC300B202120A1D71B202120A1D46B402120ABC
:100ED3001D9FB502120A1D2BB602120A1DB6B602D9
:100EE300120A1DF2B602120A1D0BB802120A1D8362
:100EF300BA02120A1D8EBA02120A1D98BA02120A07
:100F03001DA3BA02120A1DADBA02120A1DB7BA0214
:100F1300120A1DC2BA02120A1DCDBA02120A1DF527
:100F2300BA02120A1D4CBB02120A1D57BB02120A57
:100F33001D7BBB02120A1D9FBB02120A1D0ABC02C3
:100F4300120A1D4EBC02120A1D6ABC02120A1DE1DE
:100F5300BC02120A1D19BD02120A1D65BD02120A46
:100F63001DD0BD02120A1DB1BF02120A1D5EC002CE
:100F7300120A1D2EC102120A1D4BC402120A1DA021
:100F8300C402120A1DD4C402120A1DFDC502120AAC
:100F93001D59C602120A1DBCC602120A1DB9C70298
:100FA300120A1D3BC802120A1DCEC802120A1D6E88
:100FB300C902120A1D19CA02120A1D0F8301120A5D
:100FC3001D4B8301120A1D2D8501120A1D6C85011B
:100FD300120A1DB68501120A1D418601120A1DA0BF
:100FE3008601120A1DE48601120A1D2F8701120AC7
:100FF3001D848801120A1D838901120A1D198A01A1
:10100300120A1D9E8D01120A1D318E01120A1D0D39
:101013008F01120A1D6E8F01120A1D8D9001120A93
:101023001DC09201120A1D559301120A1D5F9301FF
:10103300120A1D979301120A1D6E9401120A1D359F
:101043009501120A1DCF9501120A1D4B9601120A32
:101053001D899601120A1DB29601120A1DD496012A
:10106300120A1DFA9801120A1DC99901120A1D0DCF
:101073009A01120A1D6E9A01120A1D329B01120A6D
:101083001D649B01120A1DA89B01120A1DDE9B0110
:10109300120A1D339C01120A1D879C01120A1D228C
:1010A3009D01120A1D849D01120A1DDE9D01120A73
:1010B3001D899F01120A1D86A001120A1DB1A101FB
:1010C300120A1DEDA301120A1DA6A401120A1DEFA7
:1010D300A601120A1D92A701120A1DD9A701120A1D
:1010E3001DCCA901120A1DE0A901120A1DEAA901DA
:1010F300120A1D14AA01120A1D20AA01120A1D3F79
:10110300AA01120A1DF6AA01120A1D3DAB01120A19
:101113001D47AB01120A1D51AB01120A1D9CAB0105
:10112300120A1DEFAB01120A1DF6AC01120A1D666D
:10113300AD01120A1D05AE01120A1DA9AE01120A64
:101143001D87AF01120A1DB3B001120A1D65B1015B
:10115300120A1DEAB101120A1D01B201120A1D543D
:10116300B201120A1D5EB201120A1D7CB201120AFB
:101173001DC0B201120A1DE5B201120A1D6BB301B3
:10118300120A1D43B401120A1DBEB401120A1D3B0B
:10119300B501120A1DDFB501120A1DF0B601120ACC
:1011A3001D29B801120A1D07B901120A1D61B901EF
:1011B300120A1D1BBA01120A1D3EBA01120A1D3082
:1011C300BB01120A1D81BB01120A1DC3BB01120A16
:1011D3001D1DBC01120A1D4ABC01120A1D79BC0166
:1011E300120A1DB2BC01120A1DD7BC01120A1D6FDF
:1011F300BD01120A1D98BF01120A1DE9BF01120A9F
:101203001D6CC001120A1DEEC001120A1D39C10175
:10121300120A1D5DC101120A1D9DC101120A1DB8EA
:10122300C101120A1D95C201120A1DCFC201120A81
:101233001DD6C301120A1DA2AB04120A1DDAAB04A8
:10124300120A1DFBAB04120A1D3DAC04120A1DA1B8
:10125300AC04120A1DABAC04120A1DBBAC04120A87
:101263001DE8AC04120A1D1AAD04120A1D67B0046E
:10127300120A1D24B204120A1D42B404120A1D01EB
:10128300B504120A1DC8B504120A1D4FC501120A7E
:101293001DB3C501120A1D0FC601120A1D59C6014D
:1012A300120A1D74C601120A1D9BC601120A1DB83B
:1012B300C601120A1DC4C601120A1DB6C801120ACC
:1012C3001DCFC801120A1D5AC901120A1D6DC90199
:1012D300120A1D84C901120A1D34CA01120A1D1102
:1012E300CB01120A1DB0CC01120A1D51CD01120A05
:1012F3001D53CD01120A1DBBCD01120A1DD9CD010B
:10130300120A1D7BCE01120A1DB4CE01120A1DB7AB
:10131300CE01120A1DE1CE01120A1D3ACF01120AB3
:101323001D6ACF01120A1D88CF01120A1DCECF01FB
:10133300120A1DE0D001120A1D34D101120A1D63E5
:10134300D101120A1DD4D101120A1D07D201120ABA
:101353001D40D201120A1D4ED201120A1D9BD20159
:10136300120A1D07D301120A1D48D301120A1D7860
:10137300D301120A1DA4D301120A1DAFD301120A0D
:101383001DCDD301120A1D88D401120A1D92D40166
:10139300120A1DCDD401120A1DDDD401120A1DE665
:1013A300D401120A1D4CD501120A1D60D501120A7F
:1013B3001D69D601120A1D7CD601120A1D91D601A0
:1013C300120A1D2AD701120A1DAFD701120A1D5A8C
:1013D300D801120A1D65D801120A1D8ED901120AFD
:1013E3001DAAD901120A1DFED901120A1D37DA01FD
:1013F300120A1D4CDA01120A1D8EDA01120A1DE1CE
:10140300DC01120A1D83DD01120A1D99DE01120A95
:101413001D27DF01120A1D42E101120A1D5AE101D3
:10142300120A1D5DE101120A1D69E101120A1D7D07
:10143300E101120A1D85E101120A1DB8E101120A38
:101443001DB4E201120A1D33E301120A1DAAE301CE
:10145300120A1D3AE401120A1DF3E401120A1D12D5
:10146300E501120A1DB6E501120A1DC2E501120AC1
:101473001DEDE501120A1DF0E501120A1D54E601F6
:10148300120A1DB4E701120A1D3EE901120A1DC921
:10149300E901120A1D0BEB01120A1DCFEB01120A1F
:1014A3001D00EC01120A1D29EC01120A1DDAEC01E0
:1014B300120A1D0AED01120A1DEAED01120A1DC2EC
:1014C300EE01120A1D4DEF01120A1D02F001120A6C
:1014D3001D95F001120A1DC7F001120A1D06F10144
:1014E300120A1D7CB604120A1DCFB604120A1D0C83
:1014F300B704120A1D56B704120A1DD7B704120AFD
:101503001DB8B904120A1DAEBB04120A1D1CBF0488
:10151300120A1D4BBF04120A1D63BF04120A1DD019
:10152300BF04120A1D0CC004120A1D46C004120A8D
:101533001D85C004120A1DE7C004120A1D7EA00403
:10154300120A1DFCA004120A1D3CA104120A1D92DA
:10155300A104120A1D09A304120A1D25A304120AD9
:101563001D6AA304120A1D03A404120A1D4FA40436
:10157300120A1DF5A404120A1DD1A504120A1D4B5B
:10158300A604120A1DBEA604120A1D1FA704120AEE
:101593001D60A704120A1D0DA804120A1D37A90411
:1015A300120A1D6DA904120A1DB8A904120A1DFF0F
:1015B300A904120A1D89AA04120A1D2EAB04120AD9
:1015C3001D25A805120A1D33A805120A1D9DA8058D
:1015D300120A1D47A905120A1D91AA05120A1DD256
:1015E300A605120A1DFAA605120A1DF4A705120A7A
:1015F3001D42A205120A1D87A305120A1D37C10445
:10160300120A1DDCC104120A1DFCC104120A1D1AB0
:10161300C204120A1D2EC204120A1D92C204120A27
:101623001DC2C204120A1D47C404120A1DE5C404E4
:10163300120A1DCCC504120A1D19C604120A1D5C28
:10164300C604120A1DE5C604120A1D2FC704120A96
:101653001D50C704120A1DC0C704120A1DFBC7048C
:10166300120A1D71C804120A1D0DCA04120A1DE2D2
:10167300CA04120A1D24CB04120A1D7ECB04120ACB
:101683001DD49E05120A1DF59E05120A1D2BA005E9
:10169300120A1D55A005120A1D2B8C05120A1DA541
:1016A3008C05120A1DB08C05120A1DD18C05120A75
:1016B3001D2FE204120A1D77E204120A1DE5E2045B
:1016C300120A1D06E304120A1D1DE304120A1DBDBE
:1016D300E304120A1DC6E304120A1D13E404120AEA
:1016E3001D3CE404120A1D46E404120A1DB4E4047A
:1016F300120A1D4AE504120A1D7EE504120A1DD4CE
:10170300E504120A1D30E604120A1D5EE604120AFD
:101713001DE6E604120A1D2BE704120A1D6AE704FC
:10172300120A1D9FE704120A1DB1E704120A1DC322
:10173300E704120A1DE2E704120A1DEBE704120A8A
:101743001DADE804120A1DEDE804120A1DFE79001E
:10175300120A1D427B00120A1D667B00120A1D77C6
:101763007B00120A1D897D00120A1DA87D00120A42
:101773001DAE9605120A1DE49605120A1D2D970546
:10178300120A1D7A9805120A1D61E103120A1D88C7
:10179300E203120A1DC4E203120A1D71E403120AD2
:1017A3001DABE403120A1D18E703120A1D5CE703CD
:1017B300120A1DF8E803120A1D96E903120A1DF81E
:1017C300E903120A1D99EA03120A1DDBEA03120A4E
:1017D3001D1BEB03120A1DA6EC03120A1D16EE03D2
:1017E300120A1D62F003120A1D90F003120A1DB7BC
:1017F300F003120A1DC0F003120A1D1BF103120AA3
:101803001DAEF103120A1DD6F403120A1D57F50388
:10181300120A1DD8FF04120A1D27AF05120A1DE282
:10182300F604120A1DF5F604120A1DB9F704120A8A
:101833001DF8F704120A1D15F804120A1D4EF804C8
:10184300120A1D9BF804120A1DCDF804120A1D0486
:10185300F904120A1D17FB04120A1D3EAC05120AF5
:101863001D74AC05120A1D90AC05120A1DD2AC05FD
:10187300120A1DE2AC05120A1D008004120A1D554E
:101883008004120A1DED8004120A1DAB8104120AA2
:101893001D158204120A1DE98204120A1DFE820428
:1018A300120A1D488304120A1D948304120A1DA7F9
:1018B3008304120A1DF38304120A1D078404120A07
:1018C3001D898604120A1D138704120A1D3D87040D
:1018D300120A1D758704120A1D1F8904120A1DBCF2
:1018E3008904120A1D5B8A04120A1D828A04120AE1
:1018F3001DA08A04120A1DE78A04120A1DFD8A0428
:10190300120A1D148B04120A1D438B04120A1D595B
:101913008B04120A1DF08B04120A1D538C04120A45
:101923001D9C8C04120A1D8F8D04120A1D0D50007C
:10193300120A1DB39004120A1D079104120A1DA274
:101943009104120A1DBF9104120A1DC29104120AC6
:101953001DCC9104120A1DDB9104120A1D49920445
:10196300120A1D729204120A1D929204120A1DBEDB
:101973009204120A1DE59204120A1D049304120A2A
:101983001D3F9304120A1D5B9304120A1D1757008F
:10199300120A1D959304120A1DA8AE05120A1DB45E
:1019A300AE05120A1DF0AE05120A1D5FD304120A1A
:1019B3001DAED304120A1D50D504120A1D29D704E3
:1019C300120A1D71D704120A1DB9D804120A1D0484
:1019D300DA04120A1D26DA04120A1D70DA04120A46
:1019E3001DF2DA04120A1D3BF101120A1D66F10110
:1019F300120A1D5AF201120A1DD5F201120A1D38EC
:101A0300F301120A1D84F301120A1DF5F301120AF0
:101A13001D85F401120A1D01F501120A1D43F5018A
:101A2300120A1D71F901120A1D28FB01120A1D92E7
:101A3300FC01120A1D0DFD01120A1D35FE01120AD9
:101A43001D67FF01120A1DC59304120A1D84940425
:101A5300120A1DF79404120A1D7C9504120A1DEC48
:101A63009504120A1D199704120A1DD39704120A2A
:101A73001D309804120A1DDA9904120A1D9E9A0455
:101A8300120A1D409B04120A1D699C04120A1D8F31
:101A93009D04120A1D2F9E04120A1D279F04120A79
:101AA3001D008003120A1D878003120A1DEC8003A8
:101AB300120A1D408103120A1D7B8103120A1D08AD
:101AC3008203120A1D288303120A1D9A8303120A32
:101AD3001DE38303120A1D1C8403120A1D7484036D
:101AE300120A1DCD8403120A1D2C8603120A1DD56A
:101AF3008603120A1DAA8703120A1DC98703120A45
:101B03001D268803120A1DE58803120A1D8D8A0308
:101B1300120A1DA48A03120A1DFA8B03120A1D7FDF
:101B23008C03120A1DFE8C03120A1D5A8D03120A1E
:101B33001D0A8E03120A1DDA8F03120A1DA69003D3
:101B4300120A1D289203120A1D889303120A1D15F7
:101B53009503120A1D449503120A1D279603120AC0
:101B63001D059703120A1D5E9703120A1D7697033C
:101B7300120A1D539803120A1D639903120A1D8F3B
:101B83009903120A1D6A8605120A1DA58605120A03
:101B93001D648705120A1DCA8705120A1D3B8805A5
:101BA300120A1DC08805120A1D299205120A1DA8D2
:101BB3009305120A1D11FF03120A1D22FF03120AC5
:101BC3001DC2FF03120A1DDEA305120A1DECA305A5
:101BD300120A1DEF7F00120A1D8CAD05120A1D9C0F
:101BE300AD05120A1DB4AD05120A1D1CAE05120A7D
:101BF3001DED7E00120A1D727F00120A1DD67F00A2
:101C0300120A1D88AB05120A1D8BAB05120A1DC4EF
:101C1300AB05120A1D2CAC05120A1DEEFF04120AB5
:101C23001DF1FF04120A1DF4FF04120A1DF7FF043D
:101C3300120A1DFAFF04120A1D6BFC02120A1D7917
:101C4300FC02120A1DF3FC02120A1DD7FD02120A3E
:101C53001DAEFF02120A1DDCFF03120A1DED8E05E5
:101C6300120A1D8B8F05120A1DD28F05120A1D152C
:101C73009005120A1DD89005120A1D049105120A37
:101C83001D3B9105120A1D4E9105120A1D63910514
:101C9300120A1D6C9105120A1DCEED04120A1D23B2
:101CA300EE04120A1D2BF004120A1D5DF004120A41
:101CB3001D7FF004120A1D98F004120A1DB1F004EE
:101CC300120A1DB3F104120A1D41F204120A1D7116
:101CD300A505120A1D95A505120A1DAEA505120A32
:101CE3001DE1A505120A1D12A605120A1D40A6052F
:101CF300120A1DA2A605120A1DB1A605120A1DBBD2
:101D0300A605120A1DC8A605120A1D608905120A36
:101D13001D868905120A1DC38905120A1DD289056C
:101D2300120A1DF18905120A1D598A05120A1D623C
:101D33008A05120A1DC18A05120A1DED8A05120AB7
:101D43001DFC8A05120A1D208B05120A1DDF8B0557
:101D5300120A1DEC8B05120A1DFD8B05120A1D6864
:101D6300B005120A1D80B005120A1D4EE904120ABD
:101D73001DAEEA04120A1DBBEA04120A1DCEEA04D0
:101D8300120A1DEDEA04120A1D03EB04120A1D17C1
:101D9300EB04120A1D8CEB04120A1DF1EB04120A68
:101DA3001DA1EC04120A1D76ED04120A1D86ED0432
:101DB300120A1D95ED04120A1DF3AC05120A1D1734
:101DC300AD05120A1D3FAD05120A1D67AD05120AC6
:101DD3001DE19805120A1D089905120A1D26990589
:101DE300120A1D969905120A1D499405120A1D62CD
:101DF3009405120A1D6E9405120A1D829405120A97
:101E03001DA09405120A1DAA9405120A1DB4940577
:101E1300120A1DC79405120A1D1D9505120A1D56A7
:101E23009505120A1D859505120A1DD39505120AFB
:101E33001D279605120A1D429605120A1D4C96058A
:101E4300120A1D5D9605120A1DA39605120A1D8628
:101E5300AF05120A1DB4F503120A1DDEF503120ABB
:101E63001DFAF503120A1D0DF603120A1D23F603CC
:101E7300120A1D80F603120A1DB3F603120A1DEAA5
:101E8300FA03120A1D2FFC03120A1D62FC03120A35
:101E93001D9EFC03120A1DE1FD03120A1D09FE0328
:101EA300120A1D1EFE03120A1D2EFE03120A1D72C4
:101EB300FE03120A1DD3FE03120A1DE3FE03120AD8
:101EC3001D5EA905120A1D79A905120A1DA2A905FD
:101ED300120A1DBCA905120A1DE1A905120A1D005B
:101EE300AA05120A1D18AA05120A1D46AA05120AF6
:101EF3001D60AA05120A1D22B005120A1D24FB0447
:101F0300120A1D2BFB04120A1D61FC04120A1D9107
:101F1300FC04120A1DC1FC04120A1DF4FC04120A7B
:101F23001D06FD04120A1D40FD04120A1DA6FD0430
:101F3300120A1DDFFD04120A1D2BFE04120A1D588E
:101F4300FE04120A1D78FE04120A1DF79A05120AEE
:101F53001D0C9B05120A1D269C05120A1DB39C0528
:101F6300120A1DB69C05120A1DD8FE04120A1D375B
:101F7300FF04120A1D75FF04120A1DB6FF04120A9C
:101F83001D92CB04120A1DA8CB04120A1D3FCC04D8
:101F9300120A1D72CD04120A1D46CE04120A1DD95F
:101FA300CE04120A1D42CF04120A1D52CF04120A94
:101FB3001D79CF04120A1DCBCF04120A1D57D10479
:101FC300120A1D5CD104120A1D7ED104120A1D26B9
:101FD300AE05120A1D56AE05120A1D8BAE05120A76
:101FE3001D8DAE05120A1D8FAE05120A1DA0AE058A
:101FF300120A1DA2AE05120A1DA5AE05120A1DACDA
:10200300A005120A1D1EA105120A1D40A105120AF0
:102013001D78A105120A1DAEA105120A1D358305FF
:10202300120A1D788305120A1D968305120A1DCC18
:102033008505120A1D048605120A1D288605120A43
:102043001DD7AF05120A1D26DB04120A1DFFDB0490
:10205300120A1DEADC04120A1DFBDC04120A1D0C21
:10206300DD04120A1D56DD04120A1DF6DE04120AEF
:102073001D57E004120A1D87E004120A1D55E104EE
:10208300120A1DB5E104120A1D4DCA02120A1D6C83
:10209300CA02120A1DDACA02120A1DE7CA02120A8A
:1020A3001D66CB02120A1DF4CB02120A1D10CC02CC
:1020B300120A1D96CC02120A1DBCCE02120A1DE59D
:1020C300D002120A1DECD102120A1DA3D202120A77
:1020D3001D69D702120A1D62D802120A1DF0D80226
:1020E300120A1D15D902120A1DB3D902120A1DC9FB
:1020F300D902120A1DECD902120A1D67DA02120A6A
:102103001D97DA02120A1DF7DB02120A1D97DC0281
:10211300120A1DDDDC02120A1D59DD02120A1DE03E
:10212300DD02120A1D4CDE02120A1DC6DE02120A6D
:102133001D8EDF02120A1D0BE002120A1D47E00288
:10214300120A1DB5E002120A1DC3E102120A1D0F95
:10215300E302120A1DCAE302120A1D17E402120A5D
:102163001DDFE502120A1DC2E702120A1DC5E802BD
:10217300120A1DEFEC02120A1D008002120A1DD87A
:102183008002120A1D3A8102120A1DA68102120A56
:102193001DA58202120A1DBD8302120A1D2F84028D
:1021A300120A1D718502120A1D1C8602120A1D00E5
:1021B3008802120A1DFE8802120A1DBB8902120A36
:1021C3001D0B8A02120A1DDA8A02120A1D738C027F
:1021D300120A1D0A8D02120A1DF99002120A1DE14C
:1021E3009202120A1D769302120A1DCF9302120A5B
:1021F3001D299402120A1DA09402120A1D1D9502A4
:10220300120A1D389502120A1DE79E02120A1D06C4
:10221300A102120A1D5DA202120A1DCFA302120A15
:102223001DB8A402120A1D409A03120A1DCD9A0377
:10223300120A1D0C9B03120A1D819B03120A1D0324
:102243009C03120A1D8E9C03120A1DE89C03120AAA
:102253001D869D03120A1D7F9E03120A1D099F03FB
:10226300120A1D38A003120A1DBEA103120A1D364D
:10227300A203120A1D1EA303120A1D44A403120A79
:102283001D7CA503120A1DF5A503120A1DC8A6038A
:10229300120A1D94A703120A1D9EA803120A1D7D8C
:1022A300A903120A1DA7AA03120A1DC6AD03120A27
:1022B3001D95AE03120A1D67AF03120A1DFEAF037D
:1022C300120A1D5FB103120A1D79B303120A1D43DB
:1022D300CC03120A1D7ECC03120A1D99CD03120AE8
:1022E3001DE4CD03120A1D4CCE03120A1DA8CE0312
:1022F300120A1DF9CE03120A1D63CF03120A1D50E1
:10230300D003120A1DDCD003120A1D1ED103120AC8
:102313001D50D103120A1D81D103120A1DE9D103F5
:10232300120A1DCCD203120A1DAED303120A1DE8F2
:10233300D403120A1DEFD403120A1D3FD503120A58
:102343001D4BD503120A1DFDD503120A1D42D603E8
:10235300120A1D4DD703120A1D97D703120A1DE651
:10236300D703120A1D1CD803120A1D39DA03120AF5
:102373001D41DB03120A1D6FDB03120A1DC3DB03BE
:10238300120A1DF1DB03120A1D35DC03120A1D417B
:10239300DC03120A1D59DC03120A1D86DC03120A30
:1023A3001D82DD03120A1DE5DD03120A1D17E0037A
:1023B300120A1D60E003120A1D8AE003120A1D2D92
:1023C300E103120A1D7AB403120A1DD7B403120AD9
:1023D3001DF1B403120A1DFBB403120A1D05B50354
:1023E300120A1D0FB503120A1DF7B503120A1D22A7
:1023F300B603120A1D98B603120A1DADB603120ADC
:102403001DC4B603120A1D75BC03120A1D8EBC033C
:10241300120A1DA7BC03120A1D30BD03120A1D7147
:10242300BE03120A1D75C003120A1D7BC203120AE2
:102433001D29C303120A1D83C303120A1D55C403B6
:10244300120A1D9CC403120A1D2BC503120A1D4E3A
:10245300C503120A1D23C603120A1D6AC703120A03
:102463001DB6C803120A1DFCC803120A1D4AC9037C
:10247300120A1D8EC903120A1D04CA03120A1D2261
:10248300CA03120A1DE0CA03120A1DEACA03120A8A
:102493001DABCB03120A1DD7CB03120A1D009D05EA
:1024A300120A1DAC9D05120A1DAEED02120A1DC7CC
:1024B300EE02120A1D1CF002120A1DB7F102120AE3
:1024C3001D14F302120A1D90F402120A1D61F50293
:1024D300120A1DAAF502120A1D17F602120A1D3A64
:1024E300F602120A1D3DF602120A1DFAF702120A3B
:1024F3001D3AF902120A1DABFA02120A1DCCFB02A5
:10250300120A1D008005120A1D1C8005120A1D6097
:102513008005120A1D7C8005120A1DAD8005120A72
:102523001DC58005120A1D2C8105120A1D36810561
:10253300120A1D508105120A1D628205120A1D74BA
:102543008205120A1D888205120A1D918205120A4C
:102553001DA38205120A1D80F204120A1D73F604DC
:10256300120A1D78F604120A1DA6B005120A1DE010
:102573004F00120A1DD64F00120A1DA94F00120A5E
:102583001D7F4E00120A1D1F4E00120A1D5C4C00D7
:10259300120A1DB74B00120A1D8A4B00120A1D0DA9
:1025A3004B00120A1DCF4900120A1D2A4900120AC4
:1025B3001D074900120A1D444800120A1D6B4600FC
:1025C300120A1D114600120A1DE34500120A1DE0FE
:1025D3004500120A1D8F4400120A1D904300120A7F
:1025E3001D6F4200120A1DB84100120A1D1D410051
:1025F300120A1D234000120A1D833F00120A1DC543
:102603005400120A1D485400120A1DEF5300120A07
:102613001D785300120A1D4F5300120A1DD03E00AD
:10262300120A1D9C3E00120A1DBA3D00120A1D84A7
:102633003D00120A1D005300120A1D323D00120A0A
:102643001DF63C00120A1D973C00120A1D663C0051
:10265300120A1D125200120A1D6E9304120A1D3A29
:102663003900120A1D583800120A1D363700120AA3
:102673001DBC3600120A1D813600120A1D3F3600AA
:10268300120A1D333600120A1D9A3500120A1D68FC
:102693003400120A1D3F3200120A1DC72F00120A0E
:1026A3001D852F00120A1D492E00120A1DFE2D0042
:1026B300120A1D3D2D00120A1D9C2B00120A1D3803
:1026C3002B00120A1D722B00120A1D415000120A20
:1026D3001D0F900400000080FBE4730001363601F7
:1026E30001000102010001030100010401060605C6
:1026F300020000070100340801000F090401010D65
:102703000100FF0E08000017020000190100FF1A64
:102713000100011B0100FE1C0100081D0200001F37
:1027230001000120010001210200002301000F2408
:102733000200002601000127010008280200FF2AE9
:102743000100072B0102402C0100002D0100012E86
:102753000100012F0100FF30010B1C310800003A7A
:102763000100083B01000F2F0100000000030020BF
:10277300010C8300000000200109830000010020F8
:10278300010A830000020020010B83000000404285
:10279300014C8200000400420180800000050042D9
:1027A30001B38000000600420104820000070020FC
:1027B300010E83000010004203F3100000110020FB
:1027C30003CE0F00001200100304110300000021C8
:1027D30003CF0F0302710230016002110270020184
:1027E30002020202028002100261023A0041006307
:1027F30002730272026202430200021302380000F3
:10280300020002040212020002000200020002049B
:10281300020402370037003C024402000239000080
:1028230002000265020002350281020002050282F3
:10283300028302000266020002000201017101012B
:1028430001010111010101310101010101800110A7
:102853000161013B001400630173017201620143D2
:10286300010001130106013D0135000401120100BD
:102873000100010001000104010401330133013CA3
:1028830001440132013600000100016501000135F8
:10289300008101000105018201830100016601003D
:1028A300010001030071003001600011007000316C
:1028B3000220035004800010006100000014006334
:1028C3000073007200620043000000130006000062
:1028D30000000004001200000000000000000004DB
:1028E300000400370037003C0244000000000000F1
:1028F30000000065000000350081000000050000B5
:102903000083000000660000000000010371030162
:102913000301030103010301032203020301031063
:10292300030003000300030003000300030003424A
:102933000300032403060300030003040312032517
:1029430003230325032303040304030003000300F9
:10295300034403000300032303000365032100353D
:1029630003810300030503000300030003000325A1
:1029730003230336000100060000000F00000000DF
:1029830000000000000000000003FFFF000004033C
:10299300FFFF0000FFFF0FF4010005C40403200044
:1029A3000100000B000000000000000003010F3DC8
:1029B300215B21432173214921612149216D214F4C
:1029C3002173214921612100000000000000000063
:1029D30000000000000000000000005521732100EA
:1029E3000000000000000003EAF5E5D5D5C5B5A554
:1029F3009595858575756565555545453535252504
:102A03001515052D135D133313391357134B134545
:102A130013631369136F137B133F132713211301DD
:102A2300005F1A0200FF190300051A04000B1A05C0
:102A330000111A06001D1AFFFF00000A45100209C3
:102A430010051B10070F100CEB0F0DFD0FFF0000FF
:102A530000160F00000B150B020002220F330000BB
:102A63000701030507090B0D0F00020406080A0CF2
:102A73000D5A6967426565416C6C69616E636530C7
:102A83003900000000000000008967452301EFCDF5
:102A9300AB1D142F143514F1123B14EB12F7120073
:102AA3003C40423A3F3F392F4730663030171819C0
:102AB30021301B1D1F30337D149B14A11483148FED
:102AC300148914303016181920231A1C1E303200B2
:102AD300011916181616182303000C0E020B040B0B
:102AE3000A0708000F00034D4C4651181A2505022A
:102AF30071144114471453144D1451137513951441
:102B0300811387130204020101010109020000007D
:102B130000000000BE040A0E0004003C0015003C47
:102B230000E803040009FF1E1E05030C040408103B
:102B33000C080F0A0574F71204F4E9FE12153DEEB2
:102B4300900FDBF090040C74ADF0A37426F09004A6
:102B53000E74A7F0A37426F090041074A1F0A3746C
:102B630026F0900412749BF0A37426F0023D2D749A
:102B7300F71204F4E9FE900402E4F0EE900401F08D
:102B83007C137D077A037B04121F7B901048E0902F
:102B9300040BF0122677023D2D74F21204F48A0816
:102BA3008B09EB54807003022C719004011260E1D5
:102BB3007003022C671256EFE0F9EE24020A0AEFC3
:102BC3003400FBEAFCEBFD90041A126A1DA3A3A3D5
:102BD300A3A3A3E06402703B8C828D83124F4980D0
:102BE300078A828B831261CDEA4B60208A828B83B2
:102BF300E06C7003A3E06D70E88A828B83A3A3E08B
:102C03006970DE90104C123E45F08051ECFAEDFBFA
:102C13001226658E828F83E064017035EE241312D1
:102C23002D2B1208BDEE2412127582F50A780A12B2
:102C33000A59122D1B120A55EE240B122D2B1208C2
:102C4300C5EE24171260F11214FB7409120A828074
:102C53000CE064027007EEFAEFFB122593EEFAEF35
:102C6300FB1216DBAA08E5096480FB022D18EA545F
:102C730002600D900FDA7401F0EA6402FA022D1873
:102C8300EA54046005EA640480F2EA5408600C1212
:102C93002671E5086408FAAB09807AEA541060717A
:102CA300750C00750D0090041A1261D1750A007538
:102CB3000B00800D1253D290041A124B611254ABC5
:102CC300FBEA4B603BEA2403F582EB12758514F0B3
:102CD300701A8A828B83126ADAE50A450B8A828B21
:102CE30083A3A3A3A360CD12344880CE122F6F8A8F
:102CF3000A8B0B8A828B83A3A3A3A31261B080C028
:102D0300E50C450D70057A10122D32E5086410802C
:102D1300857A007B00023935EE240FF50AEF340083
:102D2300F50B780A22EE240CF582EF1251FA227B7E
:102D330000900401E0F91218432274F41204F48A97
:102D4300088B098A828B83A3A3A3E02410124999D9
:102D5300FA1252E67003022DEB8E828F837402F017
:102D6300A3E41252D4A3A3A3A3E8F0A3E9124F024E
:102D7300A3A3A3A3A3A3A3F0E5082403F8E50912DF
:102D8300456524101248038E828F83A3A3A3A3F067
:102D9300EE2409FA122DEE124ACCF5838882E0A2C2
:102DA300E58E828F83A3A3A3A3A3500474018001A0
:102DB300E4F0E5082403F8888289831261D112675D
:102DC300AEEB122D2E122DF9120A51126E0FEB12C9
:102DD3004B828E828F83A3A31251A5120A82EEFA2D
:102DE300EFFB90040112533802367CEF3400FB8E64
:102DF300828F83A3A322E0123E902274F21204F482
:102E03008A088B09ECFAEDFB740E120CE4E0FC1259
:102E1300156D8A0C8B0DAE0CAF0DEE4F6023AC0815
:102E2300AD0912155BE96019AC08AD09EEFAEFFBC9
:102E3300121561E97007EEFAEFFB12155579008060
:102E43000279B402393574EE1204F474F7120AFCF1
:102E53008A0A8B0BECFEEDFF750FB3750E00750C34
:102E630000750D008003122F6F902B1CE493F874F0
:102E73000193F9C3E50C98E50D994003022F63AA6A
:102E83000CAB0D1215BB8A088B09EA450960D78A7A
:102E9300828B83A3A3A3A3A3E0250EF50EF510C392
:102EA300E50A9510E50B940050BC7C157D00790074
:102EB300EEFAEFFB124F6BA3A3A3A3E50AC3950E90
:102EC300F8E028C333F8E433F9E50828F582E50987
:102ED30039F583A3A3A3A3A3A3125707A31249BD41
:102EE300EAFCEBFDEEFAEF1245D1A3E06401700BAF
:102EF300EE2413122F7C123E7C804685188285199E
:102F030083AC82AD838508828509831261CF121554
:102F1300A3E960307408120CE4E0C0E0EE2413125D
:102F23002D2BD0E0F07408120CE4E06403851882C2
:102F3300851983700CAC82AD83EE240B123E69803D
:102F430003124B5585088285098312447EA3A3127D
:102F53005292C0E0EE2414122D2BD0E0F0750F0036
:102F6300A90F7409120A827F0A0207BFE50C240124
:102F7300F50CE50D3400F50D22F582EF1251FA74CC
:102F8300012274F71204F4E9FE8A828B83A3A3A3BC
:102F9300A3A3A3E0540860298A828B83A3A3A3A3DA
:102FA300A3A3E0540260178A828B83A3A3A3A3A3E2
:102FB300A3A3A3A3E06406600574E96E700312265D
:102FC3008F023D2D74E81204F474F7120AFC74079F
:102FD300120CE4124F96E9851882851983F0ECFEF2
:102FE300EDFF7425120CE4780C120C877513008E18
:102FF300828F831261CB8E828F83A3A3A3E0F91206
:1030030015798A148B15EA451570030231E5EE2410
:103013001012589BA914120F378A168B17EA4517FB
:1030230070030231E5EE2406F510EF3400F5117C50
:1030330000851082F58312322B8E828F83A3A3A384
:10304300E0851682851783A3A3A3125D4BF8A3E043
:10305300F9851682851783A3A3A3A3E8F0A3E91236
:103063003853851682851783A3A3A3A3A3A3A3120F
:1030730058C5851682851783A3A3A3A3A3A3F0EE44
:103083001267AFEF12343C120A51EE126E10EF12B8
:103093004B82851682851783A3A3A3A3A3A3A3A30C
:1030A300A31251A5120A8275100002315E850A82AD
:1030B300850B831261CF1215A9850882850983A325
:1030C300EAF0A3EB125D61124F36123463A2E650AD
:1030D3000F850882850983A3A3A3A3A3E0D2E1F00C
:1030E300E5137063850882850983A31253D2900484
:1030F3005CE0687003A3E069704D850882850983ED
:10310300A3A3A31258B1780C120A4D7428120CE42D
:10311300E0F50A780A120A597426120CE41208C55B
:103123009004691208C579007410120CE4124EED74
:103133001226CB7409120A82850882850983A3A308
:10314300A3A3A3E04405F074012510FC8E828F83B2
:10315300A3A3A3A3A3A312322B0510E50A450B6077
:1031630052851008C3E5089514E495155045E510FC
:1031730075F006A4F8A9F0E51628F8E51739F9E87B
:10318300240CF508E912424CE41251C964016003AE
:103193000230B075130185088285098374011251C9
:1031A300CEF8A3E0F9850882850983A3E8F0A3E9B3
:1031B3000230C7AA16AB17120F3D7816120A5574C0
:1031C30026120CE4E0FD7425120CE4E0FC740212F8
:1031D3000CE4E0F9EEFAEFFB1226957402120A8270
:1031E30080418E828F83A3A3A3E0C0E07404120CFA
:1031F300E4D0E0123853C0E07405120CE4D0E0F0E0
:10320300E514451570097406120CE474B98007744B
:1032130006120CE47410F07401120CE4AA82AB835E
:1032230012192D74090275771251AE8E828F83A302
:10323300A3A3E0F912157F8A0A8B0B2274E9120407
:10324300F474F3120AFC8A0A8B0B89168C148D15FD
:103253007424120CE4127696AA0CFB120F2BE9F5D8
:1032630013AA0CAB0D120F31E51370030234297549
:103273000E00800F8E828F83A3A3A3A3A3E0D2E3C8
:10328300F0050EE50C124F31E50D125A7AE50EC327
:10329300984003023420E5137003023420E50E75D1
:1032A300F006A4F8A9F0E50C28F8E50D39F9E824AF
:1032B3000CFEE91273C3A3A3A3A3E0A2E040C2756B
:1032C3000F00750808750900E5156003750F2012D6
:1032D3004F18E060339004ACE064017017E50FD23F
:1032E300E3F50F7509108E828F83124B021249B1D9
:1032F30074FF8024430F0C75080C8E828F83A312F6
:103303003448126DE6A38010E5166009E50FD2E696
:10331300F50F75080A123456F07402120CE4E50F27
:10332300125D76C0E07404120CE4D0E0F074051270
:103333000CE4124F7B120CE4E060030234037408C4
:10334300120CE412437C8E828F83A3A3A3A3F07495
:1033530008120CE41262A2126E15E912518A123499
:103363006360119004ACE0C0E07408120CE4123CFA
:1033730050D0E0F0850C82850D83A3A3A3E0C0E0C9
:103383007408120CE4126937D0E0124F76C0E0746F
:1033930008120CE4123C57D0E0F07408120CE4124B
:1033A3003448A3A312693E125D86E0126922EAF053
:1033B300A3EB125D6CC0E0E8242EF582E9122D2EFA
:1033C300D0E0F07408120CE412358612343324244E
:1033D300F582EB125D581267AFE50B12343C120A0B
:1033E30051124B7FEA242BF582EB122D2E1251A59D
:1033F300120A82851882851983AA82AB83122587D4
:103403008E828F83A3A3A3A3A3E0D2E0F0740C1254
:103413000CE4E0600302327715130232847900AAC8
:103423000CAB0D122689740D120A827F0F0207BF9F
:10343300A3A3A3A31253D6EA221251FA125D027573
:1034430012007810221253D6850A82850B83A3A318
:10345300A3A322A312345B22124EB3E8F0A3E92202
:10346300124F5BE02274F01204F474E9120AFCEACE
:10347300FEEBFF89088E828F83A3A3A3A3A3A3A339
:10348300A3E0F9120F558A0C8B0DEA450D70030268
:103493003581E50870157C048E828F83A3A3A3A3D3
:1034A300A3A3A3A3E0F9120F5B804F7C088E828F46
:1034B30083A3A3A3A3A3A3A3A3E0F9120F5B8A0A85
:1034C3008B0BEA450B6033E508F5097809120A59B5
:1034D300850C82850D83A3A3A3A3A3A3A3E0FD8AE5
:1034E300828B83A3A3A3E0FC8A828B83A3123586FA
:1034F300E0F91214F57401120A82EE240D122D2B39
:10350300124FD16079888289831261CD7406120CBF
:10351300E41235901261D17408120CE4123590A3B1
:10352300A3E0C0E07410120CE4D0E0F0850C8285B7
:103533000D83A31261C9740E120CE4124F96741119
:10354300120CE4E4123463241F124803124574E09E
:10355300C413135403FC70027C0488828983E0F94A
:10356300780C120A55742059FD744059F9740212EB
:103573000CE4AA82AB831226957402120A82741792
:103583000256D11251AE850A82850B8322EAF0A33B
:10359300EB124977A3A32274F71204F474FA120A04
:1035A300FCE9FE7F018F087D0080047508000D1281
:1035B3004F30EB125A7AEDC3985025ED75F006A4FF
:1035C300F8A9F0EA28F8EB39F9E8126C3AE912564F
:1035D300E950D8540C60D4E0A2E250D27F0080CEF0
:1035E3008A828B83A3A3A3A3A3A3E0703EE508A2CF
:1035F300E0400574016E70338A828B83A3A3A3A377
:10360300A3A374011267F3E0C0E07403120CE4D0C7
:10361300E01267EBE0C0E07404120CE4D0E0F07455
:1036230005120CE4EF124B2D12192D7406023D2ADC
:10363300C082C0837901122689023E6274F41204A7
:10364300F4EA4B60249004A8E06402701C900FDA43
:10365300E4F08A088B09F50AF50B7808120A4D7A0B
:1036630002123E50120A82800B900FDA7401F07A34
:1036730002122D328003120A827F040207BFC08226
:10368300C08390105BE075F005A4FCADF079007A7F
:10369300E77B0D1216BD7B008012EB75F005A4F8D5
:1036A300A9F012383D74FEF0A304F00B90105BE018
:1036B300F8EBC39840E4023E62C082C0837C007B87
:1036C3000080037C010B90105BE0F8EBC398504F34
:1036D300EB75F005A4F8AAF0EAF91238367003A3E3
:1036E300E0F460E112382DE82403080808E91245E4
:1036F3006524FFF0A3E034FF125A97F8A3E0F9E83A
:103703004970C0EB75F005A4F8EAF912382D8882E8
:10371300898374FEF0A30412384AA3E4F080A6EC74
:10372300A2E0500C9082F81208BD123E4E120A829B
:10373300023E6274F71204F4EAFEEBFF90105BE0C2
:103743007003023828EE24111275827003023828A0
:103753008E828F83A3A3A3A3A3A3A3A3A3124EF534
:103763006402600F8E828F83A3A3A3A3A3E07003DD
:103773000238287C0080010C90105BE0F8ECC398C1
:103783005044EE124F31EF1253CFEC75F005A4FA0B
:10379300ABF074E72AF582740D3BF583E0687003A0
:1037A300A3E06970D2EE2412127582FBEC75F0056A
:1037B300A4F8A9F074E928F582740D39F583E06B58
:1037C30070B5790080617C0080010C90105BE0F89B
:1037D300ECC39850EDEC75F005A4F8A9F012383657
:1037E3007003A3E0F470E312382DEE240B122D2B9B
:1037F300124DDCEAF0A3EB12385388828983123826
:1038030048A3A3740C1258C57A08FB900401E0F98D
:10381300121849EA4B4C4D700C9082F81208BD12F5
:103823003E4E120A827901023D2D74E728F8740D89
:1038330039F92212383DE064FE2274E728F58274D8
:103843000D39F58322A3A312384E2212497FA322F6
:103853001241ACE02274F21204F48A0A8B0BE9FEE3
:103863007A007B0090041A124F8790041A124FD1EA
:1038730060210A850882850983A3A3A3A3124FD1DC
:103883006011EA24010AEB3400FB88088909E84542
:103893000970E090104D1253D2C3EA98EB9940039C
:1038A3000239307A067B0012177D8A0C8B0DA80C27
:1038B300A90DE849607788828983E50AF0A3E50BBF
:1038C300F0EE88828983A3A3F090104C1247D5A30E
:1038D300A3124972E4F0A3F090041A1253DA600CB5
:1038E300850882850983A3A3A3A3800390041A12E6
:1038F3004B617A107B00900401E0F9121849EAF851
:10390300EBF9ECFAEDFBE8494A4B702190104A12AF
:103913004F87E4F50AF50B7808120A4D7A107B00FD
:10392300900401E0F912183D7404120A8280031214
:103933000A827F060207BF74F21204F474F3120AB8
:10394300FCEAFEEBFF8E828F83A3A3A3A3A3A3A30F
:10395300A3A3A3E0F50A900FDAE0700579BA023C5D
:103963004B750801750900750C00750D007C087D09
:10397300007900851882851983AA82AB831216BD4C
:103983007405120CE47401123C5E54046012740258
:10399300120CE4E0D2E6123C5E540870037508038F
:1039A300E05410600674404508F508E054086022AE
:1039B3007402120CE4E044C0123C5E5420600A74AA
:1039C30003120CE4E0D2E080087403120CE4E0D2AA
:1039D300E1F08E828F83A3A3A3A3A3A3A3A3E07089
:1039E300181210E7851882851983124F96740212F4
:1039F3000CE4E0D2E2F0023AA1640F7015740212F3
:103A03000CE4E0D2E3124F5B124F654508F5080260
:103A13003AA18E828F83A3A3A3A3A3A3A3A3E0644A
:103A2300028E828F83700512345780C9A3A3A3A388
:103A3300A3A3A3A3E064037013851882851983AC41
:103A430082AD83EEFAEFFB12262F80528E828F8394
:103A5300A3A3A3A3A3A3A3A3E0640170419004AC15
:103A6300E0601C7402120CE4E0D2E312533E8518AA
:103A730082851983124B61750910750AFF801874CA
:103A830002120CE4E0440C12695C74FDF0A374FFB1
:103A9300F074044508F5088E828F831276961256C9
:103AA300E3503A7402120CE4E0540C701B8E828FC4
:103AB300831261D1121B19E9700579BB023C4B7467
:103AC30002120CE4E0D2E5F01256E3501074021235
:103AD3000CE4E0540C64047004E0D2E5F0EE24112D
:103AE300127582C0E07404120CE4D0E0124F7D1210
:103AF3000CE4E06003023C447408120CE41262A27A
:103B0300EE2418127582C0E0126E15E9122D2ED024
:103B1300E0F0EE2419127582C0E07408120CE4E0A0
:103B23002413124348D0E01249CA6401701190046F
:103B3300ACE0C0E07408120CE4123C50D0E0F07426
:103B430008120CE41247DB2417FAEF12480AFCE8C8
:103B5300241CF582E9122D2EEC1258C58E828F8318
:103B6300A3A3A3A3A3A3A3A3A3E0C0E0E82422F5F4
:103B730082E9122D2ED0E0F07408120CE4123C57A7
:103B8300E50AF07408120CE41247F02424F582E9E4
:103B9300126018A3E50D12605AFCA3E0FDE8242689
:103BA300F582E9122D2EECF0A3ED12401B124F49C2
:103BB300E82428F582E9122D2E126375C0E0E8246B
:103BC3002FF582E9122D2ED0E0F0EE241B12758220
:103BD300C0E07408120CE4126930D0E0F0EE241A4D
:103BE300127582C0E07408120CE4E0242E124348DC
:103BF300D0E0126954122DFA120A51EE2411122D3B
:103C03002B124F49740B120CE412519F120A82EECD
:103C130024151275825440601B900426124FD16004
:103C230013851882851983AA82AB839004271245D2
:103C3300861226DC851882851983AA82AB83122516
:103C430087740C120CE4E0F9740D023932E0241588
:103C53001251B622E024231251B622F0EE2415129B
:103C63005AA42274F71204F47E638A828B83E06081
:103C73000C7905120DC9E9F87456C398FE900454E3
:103C8300E0600CF9120DC9E9F8EEC39824F2FEEED8
:103C9300F9023D2D74F61204F474FE120AFC851821
:103CA30082851983124F96E9FEECFAEDFB740C1230
:103CB3000CE4E0FC900582124FD1603285188285B6
:103CC30019838582088583097808120A557D01EED8
:103CD300F99005821245831226DC7402120A828B44
:103CE30009EA450960047900800679B2800279B651
:103CF30002426574F71204F4E9FE7409120CE4E05D
:103D0300FF90040C124FD1601AEFF5087808120ADD
:103D130059EEF990040C1245831226DC7401120A41
:103D230082800279B68003120A827F010207BF7480
:103D3300F21204F48A088B09ECFEEDFF750A019078
:103D4300045CE065087004A3E065097005124EE6A3
:103D5300802A1210ED8A0C8B0DE508650C7004E5C2
:103D630009650D7009EEFAEFFB1210F3800EEEFCFD
:103D7300EFFDAA08AB09120E47E9F50AA90A0239B1
:103D83003574F51204F4EAFEEBFF8C088D09750A0D
:103D930001127056123E72700B90045C1245B212FF
:103DA3004B61800EAC08AD09EEFAEFFB120E4DE944
:103DB300F50AA90A0264F774F61204F4EAFEEBFFAB
:103DC3007A0C7B0012177DEA4B606BEE2420123EC7
:103DD3003CF0EE2421123E3CA3F0EE2422123E3CA2
:103DE300A3A3F0EE2423122D2B123E451251EF1202
:103DF3005D3DE8F0A3E9125A9C125D3EA3A3E8F0EF
:103E0300A3E91258B78A828B83A3A3A3A3A3A3A373
:103E1300A3F0EE242F127582C0E0124F30EB122D67
:103E23002ED0E0124F9C8A828B83A3A3A3A3A3A3C8
:103E3300A3A3A3124B6102426A1251F7E08A828B59
:103E43008322E08A828B83A3A3A3227A087B009038
:103E53000401E0F9121837740422EAF0A3EBF0D05E
:103E630083D082020A1AFAEF3400FB121F7B22125C
:103E730049B622123E7CA3E022123E8022123E84E7
:103E8300221252CCA3A322124F10A3E022F508A3BF
:103E9300E0F509750A0078082274F61204F4ECFEC2
:103EA300EDFF79B3900453E07020900485E0640142
:103EB3007018EE126C3AEF1273D7EE240F124B5BAD
:103EC300E84960047900800279A102426A74F4121D
:103ED30004F474FE120AFCECFEEDFFEE24161275D8
:103EE3008264057011EE2406FCEF3400FD12263BBC
:103EF300E97003023F7C851882851983AC82AD8308
:103F0300126B88124102124FD1606AE875F009A45E
:103F1300F8AAF075F009E9A42AF974D228F874F420
:103F230039F9E8FAE9FBEE2412122D2BC082C08383
:103F33008A828B837808120C87D083D08278081208
:103F43000C37402D8518828519831247DB1279C9F6
:103F5300EF125D2F1241A87808120C879082A07887
:103F630008120B8E8A828B837808120CA579008045
:103F73000A79A2800679A1800279C874020236798F
:103F830074F41204F474FF120AFCEAFEEBFF9004CB
:103F930053E07071900485E06401706975083A75A7
:103FA30009007808120A557402120CE48582088508
:103FB30083097808120A5512400D120A82E9703CEF
:103FC300EE240E122F7C124EBFC0E0EE2411122DF0
:103FD3002BD0E012401B743A1258C590042E120CD9
:103FE300C1EE2412122D2B120CCD9082A078081250
:103FF3000C8790042E7808120B7B80091279C8EF86
:1040030012496CA3F074010236797C017D007A00B9
:104013007B0012122B740422F0EE240F1251F722AC
:1040230074F01204F474F6120AFCECFEEDFF740251
:10403300120CE4AC82AD8312263BE970030240FD0F
:10404300851882851983AC82AD837402120CE4AAAD
:1040530082AB83124102124FD170030240FDE87517
:10406300F009A4F8AAF075F009E9A42AF974CE2896
:10407300F874F439F988088909EE240E12410C12F8
:104083004EBFF8A3E0F9EE240F1252BD120CC1EE9D
:104093002412122D2B120CCD9082A0780C120C87B7
:1040A300850882850983780C120B7B850882850934
:1040B300837808120C879082EC780C120C877808AE
:1040C300790C120484E50C450D450E450F702B85C4
:1040D30018828519831247F075F009A4F8AAF075C0
:1040E300F009E9A42AF974D628F58274F439F58322
:1040F3007401F07A007B10124114740A0256D11233
:104103001B1F85188285198322F582EF1251FAE469
:1041130022900609E0F91217172274F01204F48AA8
:10412300088B09ECFEEDFF1279C8EF12496CA3125C
:1041330041A8C082C083908270780C120C87D08310
:10414300D082780C120B3D604B12419C70051226F5
:10415300238043E0702412261DE9603A8E828F8308
:10416300A3A3A3A3E0F8124C5254036029EEFCEF7F
:10417300FDAA08AB09121B43801C640270081226B7
:104183001DE970E98010E06403700512261D8006A6
:1041930079A1800279A30256D4EE240EF582EF12A0
:1041A3005AA76401221241AC22F0EE2412F582EFE9
:1041B3003400F5832274F61204F4EAFEEBFF124294
:1041C30046124F49EC240F124969124F531225F33B
:1041D300850882850983124FCE704712434C7003C2
:1041E300A3E069600A1243377003A3E06970338E5A
:1041F300828F83A3A3124F418E828F831261D112C8
:104203001B49E960188E828F83A3A3A3A3A3A3A34F
:10421300A3A3A3E0240F124348E4F0A3F01245BC88
:10422300E4F0124FC0701A1242561261D11225F9EE
:10423300850882850983124FCE7006122D2874A13A
:10424300F08024EE240AF508EF3400F5098508828E
:10425300F58322EE240A12425D2212432D8882F551
:1042630083227402120A827F020207BF74F61204C9
:10427300F4EAFEEBFFEE240A12432D7A187B0012B8
:10428300177D850882850983124383F8A3E0F9E843
:10429300497003024324EEFAEFFB1225E7124FC0E5
:1042A300607412436E64018E828F83A3A3A3A3A3BE
:1042B300A37007124363740E8025124FD160071257
:1042C3004359740D801912434C7003A3E06960EFE6
:1042D3001243377003A3E06960E512435974051272
:1042E3004B7854036401700712458A7405800B9060
:1042F3000454E0C0E012458AD0E0F0124246124571
:1043030098124483C0E0850882850983E02417124C
:104313004348D0E08010850882850983124E72805D
:1043230005122D287410F002426AF8EF3400F98860
:10433300088909221210E78A088B09A808A909909D
:104343000704E068221251B6228E828F831253D65D
:10435300900704E068228E828F83A3A3A3A3A3A361
:10436300A3A3A3A3E024161251B6228E828F83A3A4
:10437300A3A3A3A3A3A3A3A3A3E0240E126AAA2225
:10438300EAF0A3EB12438B221252CCE02274F11217
:1043930004F48A0A8B0B8C088D097A181261B570A4
:1043A300030244768E828F837401F0E508240DF8AE
:1043B300E509126B91C3E49AFA95E0FB126C3F1284
:1043C3005892FB8E828F83A3A3A3A3125A938E8248
:1043D3008F83A3A3F0EEFAEFFB120D7B8508828592
:1043E30009831267B470098E828F83A374058006D4
:1043F30090045412447EF0EE2417F8EF3400F98849
:104403000C890D8E828F83124482850C82850D83E5
:10441300F0EE2416F8EF3400F9E508240EFAE50966
:104423003400FB88828983124DE4E50824100A0ACC
:10443300E5093400FB850C82850D83E0FC888289C5
:1044430083E0F88A828B83E0C398C39C1264DDF017
:10445300EEFCEFFDAA0AAB0B1225EDE9F508700A95
:10446300EEFAEFFB120D87E9F508EEFAEFFB1217F0
:10447300838003750810A908027079124F0922A3DB
:10448300E0F9120DC9E9227901020A1A74F412043F
:10449300F4EAFEEBFF8E828F83A3A3A3A3A3A3A3BC
:1044A300A312603B1267B4705112436E704C8E823C
:1044B3008F83A3A3A3A3A3A3A3A3E0242B12434803
:1044C3001245AA70358E828F83A3A3A3A3A3A3A3AC
:1044D300A3E0242BF888828983124598E0F87401BD
:1044E30068600A740668600574056870071245BC45
:1044F300740280051245BC7403F0124256124583C0
:10450300E4F0EE2408F8EF124565242D124803C0A9
:10451300E012456DA3A3D0E0125A97242A12480350
:10452300C0E012456DA3A3A3D0E0125A97240B1247
:1045330043481245B21245731249BD8A0A8B0BAC2C
:104543000AAD0B850882850983E02406FAA3E034CB
:10455300001245D11261D1120D87122D28E9F00204
:10456300367C12456922124AF7228508828509831F
:10457300E0FAA3E0F5838A8222EEFAEFFB90041EB1
:10458300E0F8A31245A4228E828F83A3A3A3A3A33F
:10459300A3A3A3A3A312459C22E0F81245A3A3223D
:1045A300A3E0F583888222E0F8124BB2640522125D
:1045B30053D6850882850983228E828F83A3A3A382
:1045C300A3A3A3A3A3A3A3E0240E1251B622FB1219
:1045D30045D622121F7B8508828509832202448ADD
:1045E300C082C08390041C74E1F0A37425F090048E
:1045F3001E74D5F0A37425F090042074CFF0A37437
:1046030025F090042274DBF0A37425023E6174F458
:104613001204F4EAFEEBFF124661F508124EDA8E3D
:10462300828F83124573E0687003A3E069602CE511
:1046330008A2E550268E828F83A3E0FB90041C1210
:1046430045831226DC8E828F83E0F8A31254B2A333
:10465300124FD17006124661C2E5F002367C8E829B
:104663008F8312459CA3E02274F51204F41247C30E
:104673001247F02420F582E9127585FE74035EF576
:104683000A124DC6122D2E1247DB88828983F0A3AE
:10469300A882A983E50A60097402650A60030247D8
:1046A30032740C5EFF601574086F601074046F70D1
:1046B3001D7402650A7005EEA2E4402D8A828B8385
:1046C300A3A3A3A3A3A3A3A3E02423124827740CA7
:1046D3006F70101247BE242412481324241247D0AB
:1046E30012482A7402650A7005EEA2E4404112479B
:1046F300BE242612481324261247E0A31248391277
:1047030047E01248391247D012482AEF600F740865
:104713006F600A740C6F600574046F70128A828B69
:1047230083A3A3A3A3A3A3A3A3E024221248278ABA
:10473300828B83A3A3A3A3A3A3A3A31247F9700507
:10474300EEA2E150188A828B83A3A3A3A3A3A3A3FE
:10475300A3E0242E124DCD1247D5F0800F90040212
:104763001247D5F0900402E00412497FA3A882A95E
:1047730083EEA2E750421247BE24211247E01248BB
:104783002A8C828D831247F9602E8A828B83A3A39E
:10479300A3A3A3A3A3A3E02430124827EEA2E150CE
:1047A300178A828B83A3A3A3A3A3A3A3A3E0243188
:1047B30012480388828983F00264F71247C3E02218
:1047C300EA2408FCEB3400FD8C828D8322124DD148
:1047D300A322E088828983221253D6EE221247E471
:1047E30022F508A3E03400850882F583221247F4FA
:1047F30022125349E822E02421124DD1E05403222E
:10480300FAA3E012480A223400FB8A828B83E02257
:104813001247E4E088828983F0A3A882A9838C826B
:104823008D83E022124DD112482E22E088828983A3
:10483300F0A308A9832212482E8C828D83E02428BA
:1048430022C082C0838A828B83124665F874035820
:10485300F98A828B83A3A37401F0E960057402696A
:104863007061740C58FC601474086C600F74046CF1
:1048730070137402697005E8A2E4401D8A828B8379
:10488300A3A37402F0740C6C700A8A828B83A3A3B3
:10489300E02402F07402697005E8A2E440258A82EC
:1048A3008B83A3A3E02404F0EC600F74086C600A0C
:1048B300740C6C600574046C70098A828B83A3A3E7
:1048C300E004F0E8A2E750318A828B83A3A3E004DB
:1048D300126379F9A3E0F5838982A3A3A3E05403C8
:1048E30060178A828B83A3A3E004F0E8A2E1500956
:1048F3008A828B83A3A3E004F08A828B83A3A3E041
:1049030004023E61C082C0838A828B83A3A3A3A3D4
:10491300A3A3A3A3A3A3124FD160098A828B83A36A
:10492300A3124985023E6274F71204F4EAFEEBFF18
:104933008E828F831253D288828983A3A3A3A3A3D6
:10494300A3A3A3E4F0124972A3A3A3A3A3A3F0A375
:10495300F0E8126E02E912496C1225B7EEFAEFFB8A
:104963001225C3023D2DF582ED1251FAE4F022A384
:104973001249772212497FA3A3A3A322F088828935
:104983008322A3A3A3A3A3A3A3A3124991221261E6
:10499300B0FB12178322126AAA2409221251FA12B7
:1049A300769A750E00780C2212258D740C22124E05
:1049B300D0A322121F75E9640122A3A3A3A3E8F0E5
:1049C300A3E9F01210E122124E09E02274F6120458
:1049D300F474F4120AFC124ADCFCA3E0F5838C8223
:1049E300A3E0FC7402120CE4EC125A972402124E58
:1049F300C47404120CE4124B61EC600A7402120CCE
:104A0300E4E06404701C124AC01256F67406120CD9
:104A1300E4124AC6124EC47408120CE4E8F0A3E987
:104A23008056E06401600AE064066005E064057096
:104A330023124AC0124803C0E07403120CE4D0E00E
:104A4300125A9724131256F67406120CE4125A9350
:104A5300241B80C07406120CE4E4F0A3124AE92478
:104A6300121256F67408120CE4124AC6126AA6C051
:104A7300E0740A120CE4D0E0F07406120CE4124F56
:104A8300D160287406120CE41261D1120E3BE96462
:104A93000170181210E18A088B09AC08AD0974067D
:104AA300120CE41261D1123E72700D8518828519C1
:104AB30083AA82AB83122653740C024267124AEE16
:104AC300241222124AD3241A22124AD3F8A3E02230
:104AD300EAF0A3EB12497FE0228A828B83A3A3A38C
:104AE300A3A3A312345BF0124AEE22EA2402F8EBEA
:104AF300124AF7221251C1E022120A82023E62A335
:104B03001253D685188285198322C082C08374FD0F
:104B1300120AFC124B3DC0E07402120CE4D0E01206
:104B23004B2D1226357403024AFC124B3122F085B9
:104B33001882851983AA82AB83228A828B83A3A3DB
:104B4300A3A3A3A3124EAA8A828B83A3A312459C79
:104B5300E0221253D6EE240BF582EF1251FA124ED5
:104B6300AD22AA82AB831216B1740322124EAD900A
:104B7300042E227401124F5BA3A3E022125D7E1266
:104B830051FAE0FC7D0022C082C083124BA4600670
:104B930024FC600780081225A5800312259F023E8E
:104BA30062124BAA24FB228A828B83A3A3E0F8120E
:104BB30045A3E022C082C08390104FE0701E90078F
:104BC3001DE070188A828B83A3A3A3A3A3E0700CB8
:104BD300124C566071124C4C6407606A8A828B8354
:104BE300A3A3A3A3A3A3A3A3E070528A828B83A34B
:104BF300A3E0F8124C5264016043124C4C6402600F
:104C03003C124C4C64036035124C4C6404602E8A95
:104C1300828B83A3A31245AC6023124C4C640A60BD
:104C23001C124C4C640B6015124C4C640C600E123D
:104C33004C4C640D60077904121F5D8009900424B5
:104C43001245831226DC023E628A828B83A3A3125F
:104C53004BB222124BAA64062274F61204F474FABD
:104C6300120AFCEAFEEBFF7403120CE4124DFC740F
:104C730003120CE4AA82AB831225AB12757F600387
:104C8300024DC18518828519837432F07405120CA4
:104C9300E4C082C0838E828F83A3A3A3A3E0D083C7
:104CA300D082F8E028C0E07401120CE4D0E0124E88
:104CB30014C0E07402120CE4D0E0124E02F8A3E038
:104CC300F9E8496026E82417F582E9122D2EC082FF
:104CD300C083E82416F582E9127585D083D082F863
:104CE300E028F87401120CE4E028F0851882851995
:104CF30083AA82AB83120E9B8A088B09A808A90991
:104D0300E8497003024DB48E828F83124DDCA3A356
:104D1300124F96126E15E9122D2E124B76C0E0E853
:104D23002420F582E9122D2ED0E0124F76C0E0E860
:104D33002421F582E9122D2ED0E0124E0FC0E0E8B7
:104D4300242AF582E9122D2ED0E0F07405120CE42A
:104D5300E0FA124DC61275852A1256F6E8242BF591
:104D630082E9122D2E124F967405120CE4E0C0E076
:104D7300E8242DF582E9122D2ED0E0124E02FAA37B
:104D8300E0FBEA4B6019E8242BFAE9122DEFA3A309
:104D9300A3A3A3A3A3A3E02416124DCD124DE48E27
:104DA300828F83A3A3A3A3A3A3A3A3E8F0A3E98070
:104DB3000CEEFAEFFB1225B1122D287410F07406D5
:104DC300024267E8240BF582E922124DD122FCA3AB
:104DD300E03400FD8C828D83221251AE8882898358
:104DE30022E0FC8A828B83E02CFCA3E03400FD8A62
:104DF300828B83ECF0A3EDF022EEF0A3EFF022120E
:104E03004E09A3A3E0221253E8A3A322124E1AE0F1
:104E130022124E1AA3E0221264E5A32274F61204AE
:104E2300F4EAFEEBFF12757F7029124E60124FD128
:104E3300600612457C1226DC12757F700C1261C568
:104E4300120E95122D28E98009EE240812425912F8
:104E53004E72F0EEFAEFFB1225B102426A1225BD43
:104E63008E828F83A3A3A3A3A3A3A3A3A3A322128B
:104E73004991850882850983E4F0A32274F612041C
:104E8300F4EAFEEBFF8C088D09121B19E970047913
:104E9300018011AC08AD09EEFAEFFB900422124534
:104EA300831226DC02426A124EB3E8F0A3E9F02231
:104EB300E0F8A3E0F985188285198322126960E07E
:104EC30022F8A3E03400F922124ED0E022E8F0A346
:104ED300E9124F5FA3A3221210E78A0A8B0BA80AD9
:104EE300A90B2212705A121F7B22124F4DEEFAEFBA
:104EF300FB221251AE12116BE9221251BAE02212B7
:104F03003E7C124F0922E08E828F83A32212520B22
:104F1300A3A3A3A3227C087D0079008518828519A9
:104F230083AA82AB831216BD8E828F8322EA240B5F
:104F3300F58222E0850882850983A3A3A322A3A384
:104F4300A3A3A3A3A3A3124F4D22E0FCA3E0FD223E
:104F5300A3124F5B1251AE22124F5F22F08E828F4B
:104F63008322124EAA7404221216BD850882850973
:104F730083A3221264E1E0227401124B311249AB84
:104F830022A3A3A3E0F508A3E0F509221218558E86
:104F9300828F83EAF0A3EBF022124FA022124F5F1D
:104FA300A3A312534922C082C083124FB97499F04C
:104FB300A37425023E611225C9900424228E828F98
:104FC30083A3A3A3A3A3A3A3A3A3A31251B312478E
:104FD300F44922C082C083900704023E5D74F71235
:104FE30004F4E9FE1267A7122D2E124FD160188820
:104FF300828983A3E05403700EEEFB124DC6122D7B
:105003002E125038125032023D2DC082C083EAF86E
:10501300EBF988828983A3A3A3A3A3E0FB888289F6
:1050230083A3A3A3A3125038A3125032023E62E01B
:10503300F91214EF22E0FA88828983A3A32274E889
:105043001204F48A088B098C168D178914741A12AA
:105053000CE4E0F50AA3E0F50B741C120CE4E0F594
:1050630013741D120CE4780C120C87126E0FEB12E2
:105073007585242FFA7B001216D58A108B11AE107A
:10508300AF11EE4F70030251848E828F837401F04F
:105093008508108509117512007810120A517C17C2
:1050A3007D00EE2418125190120A8285161085177E
:1050B300117810120A517C097D00EE2402125190DE
:1050C300120A827418120CE4124B55850A82850B5E
:1050D30083E0C0E0EE240F122D2BD0E01251CEC09E
:1050E300E0EE2411122D2BD0E01251C9C0E0EE24C2
:1050F30010122D2BD0E01241A8E5131251EFE4F06A
:10510300A3F0EE2413122D2B780C120CA5EE24170A
:10511300125187123E8AF8A3E0F9EE240D122D2BCB
:105123001251E9126E091275856025EE2426125676
:10513300D9242FF81251E1126C4112499F120A51DE
:10514300126E07124B828A828B831251A5120A8236
:10515300EE24191275825403601D900418124FD166
:10516300600CEEFAEFFB1245861226DC8013EEFA92
:10517300EFFB1216DB800AEEFAEFFB9004011253E9
:105183003802757AF582EF1251FAE51422FAEF121A
:105193005196223400FB1216B1740322E0242B1221
:1051A30051B61251AE1216B17403221261B0FB2232
:1051B300E0240F1251BA22F8A3E01251C1223400A5
:1051C300F988828983221251D4E0221251D4A3E0B8
:1051D300221251D822F0850A82850B83A322EF3451
:1051E30000F98A828B83124EADE50822F0EE242665
:1051F3001251F722F582EF3400F58322F50CA3E078
:10520300F50D750E00780C22123E84A3A3A322741D
:10521300F11204F48A088B097A201252E6606D8E2B
:10522300828F8374061252F68E828F83A3A3A3A365
:10523300123E768E828F831252921251FF120A51BE
:105243007C107D00EE2406125190120A828508829A
:10525300850983124F41EE2416FAEF3400FB120E38
:1052630035850882850983A3A3A3A3A3A3A3A3A32B
:10527300A3E0C0E0EE241E122D2BD0E01252A2C0F8
:10528300E0EE241F122D2BD0E01252AF027079A34F
:10529300A3A3A3A312529B22123E80A3A3E022F056
:1052A300E508240BF582E509125AA722F0EEFAEF7E
:1052B300FB900609E0F91216E1221251F71252C4CB
:1052C30022E8F0A3E91252CC22F0850882850983F3
:1052D300221252D82212438BF8A3E0F98E828F83D5
:1052E300A3A3227B001216D58A0A8B0BAE0AAF0B3F
:1052F300EE4F221252D81252C4A3A3E02274F61224
:1053030004F4EAFEEBFF7A057B001216D5EA4B6044
:105313001E8A828B83740A12533E8A828B83A3A3D1
:10532300124ECB8A828B83A3A3A3A3F0125335021D
:10533300426A900609E0F91216E122125342221240
:105343004F5F12534922E0F8A3E0F922C082C083E1
:10535300E9900FDCF090041474FFF0A37425F0902F
:10536300041674FDF0A3740CF0900418740FF0A3EA
:10537300740D023E6174F71204F4EAFEEBFF890830
:10538300EE4F7003121BC7900428124FD170089080
:10539300042880221253D288828983A3A3A3A3A3C0
:1053A300A3A3A3A31253DA88828983A3A3A3A3A3EA
:1053B300A3A3A3A370DEEEF0A3EF1253E0A3A3A372
:1053C300E4F0A31253E0E508F0023D2D1251FA1266
:1053D30053D622125349221251AEEA4B221253E4FE
:1053E300221253E8221264E9A3A3A32274F712043E
:1053F300F4900428800D8E828F83A3A3A3A3A3A379
:10540300A3A3A3126ADEEE4F60348E828F83A3A31D
:10541300A3A3A3A3A3E06970DD8E828F83A3A3A3B9
:10542300A3E06A7003A3E06B70CC8E828F83A3A387
:10543300A3A3A3A3E06C70BEEEFAEFFB80047A0093
:105443007B00023D2D74F71204F4900428126ADEE7
:10545300900428123437687002EB6970171254B243
:105463001253D2900428124B61900428126ADE80F2
:1054730030126AD1EE4F60298E828F83A3A3A3A338
:10548300A3123433687002EB6970E68A828B83A3BC
:10549300A3A3A3A3A3A3A3A31254BFA3A3A3124B86
:1054A300611254ABFB023D2D121783EEFAEF221269
:1054B30045A4A3A3A3A3A3A3A3A3A32212570BA30C
:1054C300A32274F01204F474FA120AFC8A088B09FA
:1054D3008A828B83A3A3A3A3A3A3A3A3E0600D64E6
:1054E3000160098A828B83124EF5600579020256A8
:1054F300CF850882850983A3A3A3A3A3A3A3A3E0C2
:10550300640370157404120CE4AC82AD83AA08AB77
:105513000912262FE9701380D38508828509831227
:1055230053D27404120CE4124B61126C3012758561
:1055330024321256F612177D8A0A8B0BAE0AAF0B72
:10554300EE4F70030256CD7C327D0079001216BDFA
:105553007402120CE4AA82AB83850882850983A3B3
:10556300A3A3A3A3A3A3A3A3E0F912153774021261
:105573000CE4E0C0E0EE242D122D2BD0E0F0EE245D
:105583002CF50AEF3400F50B7403120CE4E0850AE2
:1055930082850B83F07901EEFAEFFB122611850861
:1055A3000C85090D750E00780C120A517C1C7D00C8
:1055B300EE240B125190120A82EE24301256D92493
:1055C3003208081251E124111273BBFCE9FD8C82ED
:1055D3008D831247DB242E122D2B1251E91260000A
:1055E300E509122D2E126E1B120A518C828D831225
:1055F3004F498A828B831251A5120A827404120CBA
:10560300E4125707124B619004021256FDF0900406
:1056130002E004125AAD242A126005750D00850AB2
:1056230082850B83E0780C120C008A828B83E50C55
:10563300F01256EFE50C12695CE4F0E5082415F569
:1056430082E5091256E974015007120CE4740180D3
:1056530004120CE4E4F0EE242712432D851882850E
:105663001983AA82AB8312151FE924FE850882855C
:105673000983F0F508750900EE242E122D2B124F25
:1056830049ECF8EDF9AA08AB091203ABE88E828F57
:1056930083A3A3A3A3A3A3A3A3F0ECF8EDF9AA0800
:1056A300AB091203AB8B09EA4509600F8E828F8326
:1056B300A3A3A3A3A3A3A3A3E004F0EE2420127542
:1056C3008244081260627900800279107406120A1B
:1056D300827F080207BFF8EF1273BEFAE9FBEE22DE
:1056E300EE2415F582EF125AA7A2E022EE24291226
:1056F30051F722FAA3E03400FB22124F09A3A3A31C
:10570300A3A3A32212570B221253498E828F83A382
:10571300A3A3A32274F41204F4EAFEEBFF124F8F47
:10572300901044E0F8EE242B127582C398400302D4
:1057330058841258A97012EE242B12758204125841
:10574300B7C0E01256EFD0E0F0EE2428127582FCC9
:105753007900800109EE242C125A77E9C398502668
:10576300750801750900E97808120C001258A9554B
:105773000860E1E92CFC750801750900E978081255
:105783000C00E04508F0EE242712589BEE242E125D
:105793002D2BEC8A088AF0A4F8ABF0E42BF9E098FF
:1057A300F8A3E099F9C3E89508E99400EE40392499
:1057B30027125A771258A96035EE242D122D2B1279
:1057C30058B1A3E4F0EC7052EE2420127582442009
:1057D3001249CAC0E0EE2426122D2BD0E0F0EE24AD
:1057E3003012589BA3E080561256F074FFF09004D9
:1057F3004CE0FA901047E0F508EA8508F0A4ABF016
:1058030075F064A4FAADF075F064EBA42DFB8E8201
:105813008F83A3A3EAF0A3EB80AAEE242012758260
:1058230054DF1251EFECF08C08EE2427F582EF12CF
:105833005D23FAABF0EE2430F582EF125892FBEEC3
:10584300241E122D2BEAF0A3EB1258BFC0E0EE2466
:1058530025122D2BD0E0F0EE241C122D2BE812582C
:10586300C590042A124FD1600BECF912458612261B
:10587300DCE97018EE240BFAEF3400FB12265F808C
:105883000B7BE9EE2422F582EF125A7F02367C125B
:105893005AA72AFAA3E03B2212589F22F582EF343B
:1058A30000F583E0FA22EE2429125AA4F422124FBF
:1058B30009A3F022F0EE242A125AA4221253E4A3DD
:1058C300E022F0A3E4F02274F41204F4900428120A
:1058D3006ADE1218558A0A8B0B78FF79FF8020E065
:1058E300C39AFCA3E09BFDC3EC98ED99500E8E8206
:1058F3008F83A3A3E0C39AF8A3E09BF9126AD1EEC6
:105903004F605A8E828F831261D1E50AC39AFAE5FA
:105913000B9BFB8E828F83124F47C3EA9CEB9D8EBA
:10592300828F83A3A340B8A3A3A3A3E06402701A46
:1059330012601F600CEE2410122D2B1261D112166F
:10594300DBEEFAEFFB1226058007EEFAEFFB1219E6
:105953008D7A017B00900FDC124117802574FF685C
:10596300700374FF69601B88088909E4F50AF50B65
:105973007808120A4D7A017B00900FDC123E551213
:105983000A8202367C74F01204F48A088B09ECFA5A
:10599300EDFB890A7C01126C301260118A0C8B0DAD
:1059A300AE0CAF0DEE4F7003025A74E50A600302AA
:1059B3005A74E508126000E509125A7AEE24281297
:1059C3007582686003025A74EE242C12589BE82AED
:1059D300F8E43400F98E828F83A3A3A3A3A3A3A324
:1059E300A3E0FAE89AE99400C365D0334016125D48
:1059F3000A126025700E7B00E508126E16E5091287
:105A03005A7F806D125D0A126025702EEE242C12CF
:105A13007582F91256EF7508FF750900E9780812C7
:105A23000C00E508F0EE242A122D2BE508125A9CEF
:105A330029F0EE242B12410C801FE5082414F8E50D
:105A4300093400F9E0C0E0EE242A122D2BD0E01235
:105A53005A97C0E01256EFD0E0125AAD242D122D02
:105A63002B12447EA31258C57A01FB900FDC12411E
:105A7300170256D4F582EF125AA7F8221258A2EE53
:105A830024141251F7125032EEFAEFFB12260522BC
:105A9300EAF0A3EB12497FE022F0EE2428125AA485
:105AA30022F582EF3400F583E022F0126E21F0A399
:105AB300EBF0EE2274E81204F474FD120AFCE9859B
:105AC3001882851983F08A0A8B0B8C168D17741B29
:105AD300120CE4125D02741D120CE4780C120C8794
:105AE3008A828B83A3A3E0F91215138A128B13EA1C
:105AF300451370077A007B00025CFD7A127B00126B
:105B0300177D8A088B09AE08AF09EE4F7003025C5C
:105B1300F97C127D0079001216BD7401120CE4AAFF
:105B230082AB83850A82850B83A3A3E0F912153721
:105B3300EE240FF508EF125D1E7402120CE4E085EB
