:020000040000FA
:10000000021B01022003FFFFFFFFFF02200BFFFF87
:10001000FFFFFF022013FFFFFFFFFF02201BFFFF78
:10002000FFFFFF022023FFFFFFFFFF02202BFFFF48
:10003000FFFFFF022033FFFFFFFFFF02203BFFFF18
:10004000FFFFFF022043FFFFFFFFFF02204BFFFFE8
:10005000FFFFFF022053FFFFFFFFFF02205BFFFFB8
:10006000FFFFFF022063FFFFFFFFFF02206BFFFF88
:10007000FFFFFF022073FFFFFFFFFF02207BFFFF58
:10008000FFFFFF022083FFFFFFFFFF02208B902076
:1000900000000100000000C80300000004005A5ADC
:1000A000A5A5FFFFFFFFFFFFFFFFFFFFFFFF04030B
:1000B00009042403540065007800610073002000E7
:1000C00049006E0073007400720075006D006500D9
:1000D0006E007400730024035400490020004300A4
:1000E000430032003500330031002000550053003A
:1000F0004200200043004400430000035F005F0013
:100100003000580000000000000000000000000067
:1001100000000000000000000000000000000000DF
:10012000000000003031323334353637383941423F
:100130004344454616186B186B186B186B187318E8
:1001400074F71217B0120768600302021EA3E0F8EA
:10015000A3E0600302021EA3E064027002A3E06059
:100160000302021E9003B4E02480600914604F145F
:10017000605C02021EE8600302021E9003AEE060B3
:10018000047801800278009003BCE8F0A3E4F090CA
:1001900003ADE0600A9003BCE04402F0A3E4F090F9
:1001A00003A2E0640460149003AF74BCF0A3740372
:1001B000F0A3E4F0A374021207CAF002084A900305
:1001C0009BE0640470589003BCE4F0A380D0E85432
:1001D0007FF50890039BE064047043E508C3940630
:1001E000503C749B2508F58274033400F583E85471
:1001F000806018A3A3A3A3A3A3A3E064037004785F
:1002000001800278009003BCE88090E582240CF520
:1002100082E5833400F583E0640370E780E19003B6
:10022000A27404809574F71217B0E9FE9003BA1215
:10023000076B600302030B90039BE06404600B9068
:1002400003B812076B600302030B9003B4E0541F62
:10025000600914603014602002030B9003B6E06460
:10026000017022EE9003ADF06004790580027906FA
:100270007A001217AE0203119003B8E0547FFA908F
:1002800003B6E060057900020313EAC39406507BCD
:10029000EA90620EF08A08749B2508F87403340013
:1002A000F99003B8E05480602CEE60047410800272
:1002B0007440906211F0EE600474038001E488825F
:1002C0008983A3A3A3A3A3A3A3F0EE60047908806A
:1002D000317907802DEE6004742080027480906272
:1002E00014F0EE600474038001E4C0E0E8240CF52F
:1002F00082E93400F583D0E0F0EE6004790A8002F0
:1003000079091217AE90620EE480059003A274047E
:10031000F0790102084A7900120225E970031217E8
:100320009D227901120225E970031217AC22C082C6
:10033000C0839003B812076B7015A312076B700F80
:100340009003B612050C5480FAE9FBEA4B60079063
:1003500003A27404801AE8906200F090039B600985
:10036000E06402700C74038007E06403700374029D
:10037000F0D083D0822274F31217B09003B6E0FA63
:10038000A3E014600814601014603B8059121399A4
:100390001204E9A37B80804379001213BB1204E9A5
:1003A0007B80E92402F9EA3400FA121A29FC1919AF
:1003B000E0FAA3E92403F9EA3400FA121A29F9EC65
:1003C000A3F0A3E9801CEAF91214299003AFEAF024
:1003D000A3EBF0A3E41204F8A37B00121A29A3F004
:1003E000A3E4F00204A39003AFE4F0A3F0A3F0F5BC
:1003F0000B900468E0FAA3E0FB02047E7509007428
:10040000037808121ADFEA2508F8EB3509F990039A
:10041000B6120502E493C0E0EFFCD0E06C705DA37F
:10042000E4936E70579003B8120502A3A3E493C03F
:10043000E0EFFCD0E06C704488828983A3A3A3E43E
:10044000936E703888828983A3A3A3A3E493F508ED
:10045000740193F5099003AFE508F0A3E509F0A353
:100460007480F088828983A3A3A3A3A3A3E493F851
:10047000740193F99003B2E8F0A3E9F0050B850B42
:100480000890046A12050CC39AF50CE99BF50D74EB
:1004900003780C121B10C3E508950CE4950D50036E
:1004A0000203FC9003AFE0FCA3E0FDA3E0FEEC4DF3
:1004B0004E9003A2700474048029E06404602590C7
:1004C00003BAE0FAA3E0FB9003B2E0F8A3E0F9C3BB
:1004D000EA98EB9950089003B2EAF0A3EBF090038E
:1004E000A27401F07F060219619003AFEAF0A3EB5A
:1004F000F0A374801204F822F09003AFE0F9A3E0B7
:10050000FA22E0FEA3E0FF8882898322E0F8A3E0DC
:10051000F9E82274EE1217B0EA2404F8EB3400F97B
:10052000880889098882F583E493602590046C1219
:10053000050CFEE98007EE2404FEEF3400FF8E82F6
:100540008F83E493F8740193F9EA687002EB6970A1
:10055000E5750C0080409062147490F074101206DF
:10056000697003750D408E828F83A3A3A3E4935516
:10057000106006E50DD2E0F50DE50D906215F0EA8C
:10058000906213F0EC240CF582ED3400F583E4F076
:1005900090620EF0050C850882850983E493F8E5E6
:1005A0000CC39840030206647A00790512132C8A62
:1005B0000E8B0FEA450F60DCEA2402F8EB3400F9F9
:1005C000880A890B8882F583E493540FF5129062B0
:1005D0000EF0750D008A828B83A3A3A3A3E493245A
:1005E00007F510A3E4933400F51174037810121B7F
:1005F00010AA10851210749B2510F874033400F9AA
:10060000E8FCE9FD751001751100E5127810121A69
:10061000DFE50E2403F8EB3400F9850A82850B83AD
:10062000E493A2E740030205569062117448F07407
:10063000081206697003750D408E828F83A3A3E4B0
:100640009355106006E50DD2E0F50DE50D906212B0
:10065000F0EA906210F08C828D83A3A3A3A3A3A3DE
:10066000A302058E7F0B021961F088828983E493CF
:100670005403640122C082C0831207687010A31261
:10068000076B700AA3E064017002A3E060079003A7
:10069000A27404800C9003AF749CF0A3740312073F
:1006A000C0F002037174F41217B090039BE064026F
:1006B00060149003B812076B700CA312076B7006DE
:1006C0009003B7E060099003A27404F00207637A14
:1006D0000079011217AE9003B6E060727A00F91249
:1006E00013BB8A088B09EA4509605B90039B74047D
:1006F000F09003B6E090039CF0750C0085088285AD
:100700000983A3A3A3A3E493F8E50CC398504D85F4
:100710000C0A749D250AF874033400F9E8FEE9FF19
:100720008E828F83E4F07A00790412132C8A828BF4
:1007300083A3A3A3E493F88E828F83E06870E7120B
:100740000513050C80B69003A27404F0800E90038C
:100750009CF090039B7403F0F912128A7A007902DC
:100760001217AE7F050219619003B6E0F8A3E0F915
:10077000E8492274F61217B090039BE064047019E4
:100780009003B4E064817011120768700C9003BA92
:10079000E064017002A3E060079003A27404801A71
:1007A0009003B8E0249DF508A3E03403F509900315
:1007B000AFE508F0A3E5091207C0F07F0302196155
:1007C000F0A3E4F0A3041207CA22F0A3E4F090031C
:1007D000A2042274F71217B090039BE064047064C3
:1007E0009003B4E06401705C9003BA12076B70541C
:1007F0009003B6E0FB9003B8E0FA90039CE0F91296
:1008000013F38A088B09AE08AF09EE4F60369003E8
:10081000B8E0FA79031217AE9003B6E0C0E0900397
:10082000B8E0249DF8A3E03403F988828983D0E0FE
:10083000F0EEFAEFFB1205139003B8E0FA79041218
:1008400017AE80069003A27404F07F02021961744F
:10085000F81217B074FF121A8C7E00803390038256
:10086000E0F8851882851983E068700D900380E0B8
:10087000644D7005120AC8E9FE900383E4F090030A
:1008800085F0851882851983E0F8900382E068F08E
:100890007901851882851983AA82AB83120D8EE9AE
:1008A000700302094DE0C0E0900385E0F8900383F7
:1008B000E0FAE82AF8E43400120C62D0E0F0900389
:1008C00085E0601114602014603E14604E14606472
:1008D00014608A80AD851882851983E064FE70A259
:1008E0009003857401809A900382E4F085188285D4
:1008F0001983E0900384F0C394809003854004E45E
:100900000208817402020881851882851983E090AB
:100910000380F0900385740302088185188285198D
:1009200083E0900381F0900384E060199003857464
:1009300004020881900383E004F0F8900384E068E7
:1009400060030208829003857405020881EEF97441
:1009500001121A437F0102196174ED1217B074FB82
:10096000121A8C7508047509007808121ABB7403F2
:10097000121B2CAC82AD837A907B00790412154C4B
:100980007402121A437403121B2CE0FAA3E0FBEA70
:100990004B601A7401121B2C120C74E849600E741F
:1009A00001121B2CE0F47003A3E0F47003020ABCF4
:1009B00074FF6A700374FF6B6003020AA274011271
:1009C0001B2C74FFF0A3F075080075100075112042
:1009D000751200751300800A9003BE7810121AA2D7
:1009E000604F750A01750B00780A121ABB74021267
:1009F0001B2CAC82AD8385100A85110BAA0AE50B6E
:100A00005407FB8A0C85110D85120E85130F740B8C
:100A1000780C121A5DA90C12154C7402121A438537
:100A20001882E0F9AA08AB09120C7A8A088B0980AF
:100A30000C7510937511207512007513009003C288
:100A40007810121ACC9003C678101219EF5089E46E
:100A5000F9120C7AE4F9120C7A7403121B2CEAF0E6
:100A6000A3EBF07508017509007808121ABB74032E
:100A7000121B2CAC82AD837A247B081215D1740230
:100A8000121A437508047808121ABB7403121B2C3F
:100A9000AC82AD837A907B00790412154C740212FB
:100AA0001A437401121B2C120C747403121B2CE0D9
:100AB000687003A3E069700479018002790074050D
:100AC000121A437F0C02196174F31217B074FC12EE
:100AD0001A8C900304E0FAA3E0F8E4C8F9EA2400D1
:100AE000FEE93408FF750A01880988088E0C8F0D0D
:100AF0007409780C121B10A90CEEF50CEF5401F5DB
:100B00000D900381E014600914602C146069020CDC
:100B100012EA450D7003121637750C10750D00782A
:100B20000C121ABB7C067D03EEFAEFFB1215D17492
:100B300002121A43020C12E9C394794006750901A6
:100B4000020C12750A40750B00780A121ABB7C075A
:100B50007D037402780C121ADFAA0CAB0D12154C2F
:100B60007402121A43900305E0A3F0900304E0A37B
:100B7000F0750A43020C12750C04750D00780C1206
:100B80001ABB7402121B2CAC82AD837A907B007965
:100B90000412154C7402121A437402121B2C120C0C
:100BA00074851882851983E0687003A3E069604941
:100BB000120C6E7402121B2CE8F0A3E9F0750C0104
:100BC000780C121ABB7402121B2CAC82AD837A24EF
:100BD0007B081215D17402121A43750C04780C129A
:100BE0001ABB7402121B2CAC82AD837A907B007905
:100BF0000412154C7402121A43120C6E7402121B6A
:100C00002CE0687003A3E069700575080180037526
:100C10000907900303E0D2E7F0E509A3F0E50A90A5
:100C20000301F0744D650AF5097404250AFB7A0383
:100C30008004E062090AEAF83395E0120C62EAC324
:100C40009BA2D265D03340EAE509F074012AF97A13
:100C5000007B03120DCEA9087404121A437F06020A
:100C60001961F9740028F582740339F58322851817
:100C700082851983E0F8A3E0F922C008C0097C0846
:100C80008A088B09740F7808121B10EAC333FAEB39
:100C900033FBE9A2E7500474014AFAE508A2E050E8
:100CA0000874216AFA74106BFBE9C333F91CEC7009
:100CB000CFD009D00822C082C0838003121693A22D
:100CC000E840F9A823E8540460097823E654FBF6C9
:100CD000121036A823E8541060097823E654EFF682
:100CE000121054A823E8A2E05005782354FCF69093
:100CF000620EE0FA7404F0906214E0A2E05042E563
:100D0000A8F8C2AF906216E0F9A3E0E9FBE8A2E719
:100D100092AF801F906228E0C0E090038FE0F874EB
:100D20007028F58274053400F583D0E0F090038FCD
:100D3000E004F0EBFC74FF2C1B0470D8906214E408
:100D4000F0EA90620EF0E0FD7404F0906211E0A20F
:100D5000E04031900391E0F8900390E06860257ADC
:100D600040900390120E06E0906228F0900390E00D
:100D700004F008900391E06860041AEA70E390625E
:100D8000117401F0ED90620EF0D083D0822274F8DD
:100D90001217B0E9FE7900801F90038EE0FC74709A
:100DA0002CF58274053400F583E08A828B83F09001
:100DB000038EE004120DFB0990038EE0F890038F80
:100DC000E0686005E9C39E40D07F01021961C082DE
:100DD000C083E9FC80188A828B83E0C0E090039195
:100DE000120E06D0E0120DFB900391E004F0ECF837
:100DF00074FF281C0470DF7901808EF08A828B8357
:100E0000A3AA82AB8322E0F8747028F582740434BC
:100E100000F58322794A120FE653BEFBE59DA2E658
:100E200050FA0078F8790100E824FF18E934FFF956
:100E3000E84970F375C6807480659E70FA43BE04FD
:100E40009062707408F0120F31120959E96013E5CD
:100E50009D541864107003120F3C120ECC120F59DF
:100E60008003120ECC794E120FE6750C00750D0042
:100E7000750E00750F008028C280D291750C007528
:100E80000D00750E00750F00120CB69003C2780CA1
:100E9000121ACC9003CA780C1219EF50EB120F3CC7
:100EA000120CB612084FE96006120959E970C9859B
:100EB0000D099003C2780C121ACCE509544060E089
:100EC000A2805004C28080D8D28080D474F51217DA
:100ED000B09003CE7808121AF2901EFC7808121A0D
:100EE000A2600A53F4FEC29043FE01800B901EFCE8
:100EF000E4F0A3F0A3F0A3F07403F5D575D48690C5
:100F00000392E4F0A374C2F0A37401F0A3E4F0A38D
:100F1000F0A3F0A37408F0120FFC7AFF7BFF121607
:100F20004E53F4FED29043FE01120F317F0402199A
:100F300061D28043FD01C29143FE0222C280D29160
:100F4000A29250FCA29350F8D280C291022000C21B
:100F5000AF75C9AB75C95B80FE74F11217B074FF31
:100F6000121A8C750C00750D00750E26750F008019
:100F700004C291C280120CB679018518828519834A
:100F8000AA82AB83120D8EE96016E064F86049E036
:100F90006407700C750C00750D00750E00750F0060
:100FA000A2925034A293501E850C08850D09850E1F
:100FB0000A850F0B9003D2780C121ACCE50845096C
:100FC000450A450B7003120F3C850D09E5095420B5
:100FD000709FD280D291809DD280C2917401121AEA
:100FE000437F08021961781075B60FE5B4A2E75087
:100FF000FAE5BBC39940F118E870ED22C082C083C6
:101000007A0079011213BB8A828B83A3A3A3A3A3C3
:10101000A3A3E493A2E69003AE500474018001E41C
:10102000F09003ADE4F090620F7403F0E0A2E7509B
:10103000FBD083D08222C082C08390039B7402F0D5
:10104000A3E4F09003A2F0790312128A75210075CF
:10105000220080DD74F61217B090620EE0FEE4F01C
:10106000906211E0FFA2E4501D7480F09003A2741E
:1010700007F0E52145226009852182852283121B24
:101080003E9003A2E4F0EFA2E2500B906211E4F074
:101090009003A2F080629003A2E0F87402687041AD
:1010A000906216E0FF9003AF1219A1EFF97A207B4E
:1010B000621212C27403121A438F089003B2121202
:1010C0005F12126AE0F8A3E0F9E849600474408016
:1010D000027448906211F0E849600302125502124E
:1010E000317406687009852182852283121B3E9027
:1010F00003A2E060030211E1EFA2E04003021255F7
:101100007508B4750903750A007808121AB77908CA
:101110007A207B621212C27403121A437521007581
:1011200022009003B4E054E0601D24E0700302113B
:10113000BD24E0607224C0604824E070030211C83E
:1011400024E0606E0211D3A3E014602624FE601D2B
:1011500024FE600A24FC601F24FE602080751203B8
:101160002E9003A2E06404707274608070120322F7
:1011700080EF12031680EA1206A580E51207D380DD
:10118000E0A3E0600E24FA600F24FE601024FE60ED
:1011900011804012014080C912037680C412067586
:1011A00080BF12077380BA7521997522171217999B
:1011B00080AF75219B75221712179B80A47521346F
:1011C000752217121734809975216475221712172A
:1011D00064808E9003A27404F0808E74409062113B
:1011E000F09003A2E0F8740168705C7F029003B293
:1011F000E0F8A3E0F9C3E89420E994005007E8F58B
:101200000A7F0A8003750A209003AF1219A1A90A68
:101210007A207B621212E77403121A43850A0812BD
:10122000126A12125FEF906211F0E50AC394205027
:1012300024E52145226009852182852283121B3EF7
:101240009003A2E4F0800E74056870098521828500
:101250002283121B3EEE90620EF07F03021961C3DF
:10126000E09508F0A3E09400F0229003AFE0F9A32A
:10127000E0FAA3E0FBE92508F9EA3400FA9003AFAD
:10128000E9F0A3EAF0A3EBF0A32274F71217B07809
:1012900000880874A32508F58274031212B640F181
:1012A0007800880874A82508F58274031212B640E5
:1012B000F17F020219613400F583E9F008E8C39474
:1012C000052274F61217B0EAFCEBFDE9F8740A1275
:1012D0001B2C121317600D8C828D83E0121A76126C
:1012E000130C70F302125A74F61217B0EAFCEBFDFD
:1012F000E9F8740A121B2C121317600D121A298CAC
:10130000828D83F012130C70F302125AE924010942
:10131000EA3400FA18E822E0F508A3E0F509A3E0B2
:10132000A908AA09FBE822D083D08222C082C08308
:10133000E9FCEAFD7A007B008003121377900399A1
:10134000E0F8A3E0F9900466E0687003A3E0696048
:101350002490039AE0F5838882A3E493F8EC687004
:101360000D900399E0FAA3E0FB1213778007ED6874
:1013700070C8ED60C580B0900399E0F8A3E0F583F4
:101380008882E493F8900399E028F8A3E03400F908
:10139000900399E8F0A3E9F022C082C0831213AA57
:1013A0007A00790112132C021327900464E0F8A349
:1013B000E0F9900399E8F0A3E9F02274F71217B06E
:1013C000E9FEEAFF1213AA7A00790212132CEA4B03
:1013D000601CEE60108A828B83A3A3A3A3A3E49373
:1013E0006E70E48009EFF874FF281F0470D97F0243
:1013F00002196174F51217B0EAFF8B087A00121314
:10140000BB7A02790412132CEA4B60188A828B8310
:10141000A3A3E4936F70EA8A828B83A3A3A3E493CC
:10142000650870DD7F0402196174F71217B074F05B
:10143000121A8CE97A007B00600C1460101460149E
:101440001460180215347ADE7B030215347AE27BCD
:10145000030215347A067B0402153490042AE060F6
:10146000030215307408121B2CAC82AD8375830304
:101470007582D674081219CE750808F50978081215
:101480001ABB7402121B2CAC82AD837AE87B0779FD
:101490007F12154C7402121A437808121ABB740A90
:1014A000121B2CAC82AD837402121B2CAA82AB835C
:1014B0001218C97402121A438B09EA4509701D7586
:1014C00009007808121ABB7C0C7D787402121B2C60
:1014D000AA82AB8312191B7402121A437C287D0066
:1014E0008D08851882851983E5822508F582E583B4
:1014F0003400F583E0FF8C08742A2508F87404345E
:1015000000F9EF12153C88828983F0EFC412153C74
:10151000C0E0E824FEF582E934FFF583D0E0F00D69
:1015200074FC2CFCEDC3940840B690042A742AF095
:101530007A2A7B047410121A430213EE540FFA74C1
:10154000542AF58274043400F583E02274F51217EE
:10155000B08908740F5508F50A750B00740B780AEA
:10156000121ADFEA2400F8EB3480F9E82400E935A8
:101570000BF9E5C7F509A2AFE433F50AC2AFE508F8
:10158000C4540FFAE5C754F84AF5C7740B121B2C64
:10159000E0FAA3E0FB801C88828983E08C828D8343
:1015A000F088828983A3A882A9838C828D83A3ACCF
:1015B00082AD83EAFEEBFFEE24FF1AEF34FFFBEE71
:1015C0004F70D48509C7E50AA2E092AF7F040219E3
:1015D0006174F71217B0ED900386F0ECA3F0A374DA
:1015E00062F0A37473F0A3E0541FF07409121B2C73
:1015F000E0F508A3E0F509E508333354FC90038BCC
:10160000F074067808121B10E50890038AF0900326
:101610008C7412F0A37442F075D1FE75D601EA9075
:101620006271F0EBA3F0906270E0D2E1F0E0A2E72B
:1016300040FB7F02021961C082C083E9C33390621C
:1016400072F0906270E0D2E0F0D083D0822274F722
:101650001217B07523007524007525008A268B2784
:10166000EA90620BF08A088B0974047808121B1048
:10167000E508906207F08A088B0974097808121B44
:1016800010E508543E906209F0758B00C2E87F02B5
:1016900002196174F71217B0E59DA2E650FA906244
:1016A00006E0FAA2E25035A826E890620BF0F508B1
:1016B00085270974047808121B10E508906207F06A
:1016C00085260885270974097808121B10E5085437
:1016D0003E906209F0906201E0D2E0F07823EA46A1
:1016E000F6906202E0F50875090074047808121A91
:1016F000DF7823E50846F608E50946F6906204E03F
:10170000F50875090074097808121ADF7824E509CC
:1017100046F6EAA2E0500375250174065A60037587
:101720002500E58BA2E55006758BDF7525001217A5
:10173000AF021689C082C0839003B5E0F8742268B6
:1017400070089003A2E0701A80117420689003A2C0
:10175000700DE0700D12178B9003A274028002745A
:1017600004F08043C082C0839003B5E064219003FD
:10177000A27013E0701312178BA37407F0A3E4F0A8
:101780009003A20480027404F0801C9003AF749252
:10179000F0A37403F0A3E4F02280028000C082C0B2
:1017A000839003A27404F0D083D0822280EF22229F
:1017B0002518C582C0E0E51934FFC583C0E0E518EF
:1017C000C3958224F910AF08858319858218800893
:1017D000858319858218D2AFCEF0A3E520F0A378D7
:1017E00008E608F0A3DEFAEFF0A3E58124FBF8E6B3
:1017F00008F0A3E608F0A30808E608F0A3E608F05E
:10180000A315811581D0E0FED0E0F815811581E89F
:10181000C0E0EEC0E02212010002020000205104EC
:10182000A816090001020301090243000201008019
:10183000190904000001020201000524001001043E
:101840002402020524060001052401000107058287
:101850000340004009040100020A0000000705845B
:101860000240000007050402400000311800005447
:10187000180000121B3BB900030218C3E479217859
:1018800007B800028004F709D8FCE490030078BF91
:1018900079018002F0A3D8FCD9FA9003BEAA82ABEA
:1018A0008390008E78B379018015E493A3AC82AD68
:1018B000838A828B83F0A3AA82AB838C828D83D8A8
:1018C000E9D9E7120E14121B3674F51217B0740B17
:1018D000121B2CE0F8A3E08015A3AA82AB838C82B4
:1018E0008D83A3AC82AD83E824FF18E934FFF9E8C7
:1018F00049601F8C828D83E0F5088A828B83E0F536
:101900000AE508650A60D2E50AC39508FA95E0FB86
:1019100080047A007B007F0402196174F71217B00B
:10192000EAF8EBF97409121B2CE0FEA3E0FF801823
:101930008C828D83E088828983F0A3A882A9838C1E
:10194000828D83A3AC82AD838E088F09E50824FFC6
:101950001EE50934FFFFE508450970D47F0202192E
:1019600061851983851882E0A3FEE0A3F52078083D
:10197000E0A3F608DFFAE0A3FFE0A3C0E0E0A3C025
:10198000E0E0A3C0E0E0A3C0E010AF0885821885C6
:1019900083198008858218858319D2AFD083D082BD
:1019A0002274038000CCC0E0EDC0E0E518C39CCCFD
:1019B000AD1950011D10AF068C188D1980068C18BA
:1019C0008D19D2AF1219CED0E0FDD0E0FC22CAC0F2
:1019D000E0E0A3C582CCC582C583CDC583F0A3C595
:1019E00082CCC582C583CDC583DAE6D0E0CA22C0E9
:1019F00008C3E096F50808A3E096420808A3E0961D
:101A0000420808A3E09645087001D3D008222518A3
:101A1000F58210AF08F518400215198008F5184036
:101A2000021519D2AF85198322BB0102E722C082B9
:101A3000C08389828A83BB0003E08002E493D08361
:101A4000D08222C0D0251810AF08F5185002051911
:101A50008008F51850020519D2AFD0D022601608C0
:101A60000808C6C313C618C613C618C613C618C6B8
:101A700013C6D5E0EA22BB000EC082C0838A8389E8
:101A800082F0D083D08222BB0101F722251810AF4B
:101A900008F518400215198008F51840021519D2EA
:101AA000AF22E066701008A3E066700A08A3E06643
:101AB000700408A3E066227403800474028000C0EE
:101AC000E0F404121A0ED0E0121B1F22E026F608E2
:101AD000A3E036F608A3E036F608A3E036F6227057
:101AE0000422600D18C6C333C608C633C6D5E0F459
:101AF0001822E0F608A3E0F608A3E0F608A3E0F653
:101B00002275D00075813F7518007519030218738E
:101B1000600C08C6C313C618C613C6D5E0F422CAA3
:101B2000C0E0E6F0A308DAFAD0E0FA222518F58240
:101B3000E43519F5832200000080FB790122E4736B
:101B4000FFFFFFFFFFFFFFFFFFFFFFFFFFFFFFFFA5
:101B5000FFFFFFFFFFFFFFFFFFFFFFFFFFFFFFFF95
:101B6000FFFFFFFFFFFFFFFFFFFFFFFFFFFFFFFF85
:101B7000FFFFFFFFFFFFFFFFFFFFFFFFFFFFFFFF75
:0400000500001B01DB
:00000001FF
